{
	"solidity-study-3/ERC20.sol": {
		"ERC20": {
			"abi": [
				{
					"anonymous": false,
					"inputs": [
						{
							"indexed": false,
							"internalType": "address",
							"name": "spender",
							"type": "address"
						},
						{
							"indexed": false,
							"internalType": "uint256",
							"name": "value",
							"type": "uint256"
						}
					],
					"name": "Approval",
					"type": "event"
				},
				{
					"anonymous": false,
					"inputs": [
						{
							"indexed": false,
							"internalType": "address",
							"name": "from",
							"type": "address"
						},
						{
							"indexed": false,
							"internalType": "address",
							"name": "to",
							"type": "address"
						},
						{
							"indexed": false,
							"internalType": "uint256",
							"name": "value",
							"type": "uint256"
						}
					],
					"name": "Transfer",
					"type": "event"
				},
				{
					"inputs": [
						{
							"internalType": "address",
							"name": "",
							"type": "address"
						},
						{
							"internalType": "address",
							"name": "",
							"type": "address"
						}
					],
					"name": "allowance",
					"outputs": [
						{
							"internalType": "uint256",
							"name": "",
							"type": "uint256"
						}
					],
					"stateMutability": "view",
					"type": "function"
				},
				{
					"inputs": [
						{
							"internalType": "address",
							"name": "spender",
							"type": "address"
						},
						{
							"internalType": "uint256",
							"name": "amount",
							"type": "uint256"
						}
					],
					"name": "approve",
					"outputs": [
						{
							"internalType": "bool",
							"name": "",
							"type": "bool"
						}
					],
					"stateMutability": "nonpayable",
					"type": "function"
				},
				{
					"inputs": [
						{
							"internalType": "address",
							"name": "",
							"type": "address"
						}
					],
					"name": "balanceOf",
					"outputs": [
						{
							"internalType": "uint256",
							"name": "",
							"type": "uint256"
						}
					],
					"stateMutability": "view",
					"type": "function"
				},
				{
					"inputs": [
						{
							"internalType": "uint256",
							"name": "value",
							"type": "uint256"
						}
					],
					"name": "mint",
					"outputs": [],
					"stateMutability": "nonpayable",
					"type": "function"
				},
				{
					"inputs": [],
					"name": "totalSupply",
					"outputs": [
						{
							"internalType": "uint256",
							"name": "",
							"type": "uint256"
						}
					],
					"stateMutability": "view",
					"type": "function"
				},
				{
					"inputs": [
						{
							"internalType": "address",
							"name": "to",
							"type": "address"
						},
						{
							"internalType": "uint256",
							"name": "amount",
							"type": "uint256"
						}
					],
					"name": "transfer",
					"outputs": [
						{
							"internalType": "bool",
							"name": "",
							"type": "bool"
						}
					],
					"stateMutability": "nonpayable",
					"type": "function"
				},
				{
					"inputs": [
						{
							"internalType": "address",
							"name": "from",
							"type": "address"
						},
						{
							"internalType": "address",
							"name": "to",
							"type": "address"
						},
						{
							"internalType": "uint256",
							"name": "value",
							"type": "uint256"
						}
					],
					"name": "transferFrom",
					"outputs": [
						{
							"internalType": "bool",
							"name": "",
							"type": "bool"
						}
					],
					"stateMutability": "nonpayable",
					"type": "function"
				}
			],
			"devdoc": {
				"kind": "dev",
				"methods": {
					"approve(address,uint256)": {
						"details": "调用者账户给`spender`账户授权 `amount`数量代币。 如果成功，返回 `true`. 释放 {Approval} 事件."
					},
					"transfer(address,uint256)": {
						"details": "转账 `amount` 单位代币，从调用者账户到另一账户 `to`. 如果成功，返回 `true`. 释放 {Transfer} 事件."
					}
				},
				"version": 1
			},
			"evm": {
				"assembly": "    /* \"solidity-study-3/ERC20.sol\":464:2456  contract ERC20 {... */\n  mstore(0x40, 0x80)\n  callvalue\n  dup1\n  iszero\n  tag_1\n  jumpi\n  0x00\n  dup1\n  revert\ntag_1:\n  pop\n  dataSize(sub_0)\n  dup1\n  dataOffset(sub_0)\n  0x00\n  codecopy\n  0x00\n  return\nstop\n\nsub_0: assembly {\n        /* \"solidity-study-3/ERC20.sol\":464:2456  contract ERC20 {... */\n      mstore(0x40, 0x80)\n      callvalue\n      dup1\n      iszero\n      tag_1\n      jumpi\n      0x00\n      dup1\n      revert\n    tag_1:\n      pop\n      jumpi(tag_2, lt(calldatasize, 0x04))\n      shr(0xe0, calldataload(0x00))\n      dup1\n      0x70a08231\n      gt\n      tag_10\n      jumpi\n      dup1\n      0x70a08231\n      eq\n      tag_6\n      jumpi\n      dup1\n      0xa0712d68\n      eq\n      tag_7\n      jumpi\n      dup1\n      0xa9059cbb\n      eq\n      tag_8\n      jumpi\n      dup1\n      0xdd62ed3e\n      eq\n      tag_9\n      jumpi\n      jump(tag_2)\n    tag_10:\n      dup1\n      0x095ea7b3\n      eq\n      tag_3\n      jumpi\n      dup1\n      0x18160ddd\n      eq\n      tag_4\n      jumpi\n      dup1\n      0x23b872dd\n      eq\n      tag_5\n      jumpi\n    tag_2:\n      0x00\n      dup1\n      revert\n        /* \"solidity-study-3/ERC20.sol\":1854:2007  function approve(address spender, uint256 amount) external returns (bool){... */\n    tag_3:\n      tag_11\n      0x04\n      dup1\n      calldatasize\n      sub\n      dup2\n      add\n      swap1\n      tag_12\n      swap2\n      swap1\n      tag_13\n      jump\t// in\n    tag_12:\n      tag_14\n      jump\t// in\n    tag_11:\n      mload(0x40)\n      tag_15\n      swap2\n      swap1\n      tag_16\n      jump\t// in\n    tag_15:\n      mload(0x40)\n      dup1\n      swap2\n      sub\n      swap1\n      return\n        /* \"solidity-study-3/ERC20.sol\":486:512  uint256 public totalSupply */\n    tag_4:\n      tag_17\n      tag_18\n      jump\t// in\n    tag_17:\n      mload(0x40)\n      tag_19\n      swap2\n      swap1\n      tag_20\n      jump\t// in\n    tag_19:\n      mload(0x40)\n      dup1\n      swap2\n      sub\n      swap1\n      return\n        /* \"solidity-study-3/ERC20.sol\":2013:2453  function transferFrom(address from, address to, uint256 value) external returns (bool) {... */\n    tag_5:\n      tag_21\n      0x04\n      dup1\n      calldatasize\n      sub\n      dup2\n      add\n      swap1\n      tag_22\n      swap2\n      swap1\n      tag_23\n      jump\t// in\n    tag_22:\n      tag_24\n      jump\t// in\n    tag_21:\n      mload(0x40)\n      tag_25\n      swap2\n      swap1\n      tag_16\n      jump\t// in\n    tag_25:\n      mload(0x40)\n      dup1\n      swap2\n      sub\n      swap1\n      return\n        /* \"solidity-study-3/ERC20.sol\":519:564  mapping(address => uint256) public  balanceOf */\n    tag_6:\n      tag_26\n      0x04\n      dup1\n      calldatasize\n      sub\n      dup2\n      add\n      swap1\n      tag_27\n      swap2\n      swap1\n      tag_28\n      jump\t// in\n    tag_27:\n      tag_29\n      jump\t// in\n    tag_26:\n      mload(0x40)\n      tag_30\n      swap2\n      swap1\n      tag_20\n      jump\t// in\n    tag_30:\n      mload(0x40)\n      dup1\n      swap2\n      sub\n      swap1\n      return\n        /* \"solidity-study-3/ERC20.sol\":1513:1685  function mint(uint256 value) external{... */\n    tag_7:\n      tag_31\n      0x04\n      dup1\n      calldatasize\n      sub\n      dup2\n      add\n      swap1\n      tag_32\n      swap2\n      swap1\n      tag_33\n      jump\t// in\n    tag_32:\n      tag_34\n      jump\t// in\n    tag_31:\n      stop\n        /* \"solidity-study-3/ERC20.sol\":1129:1492  function transfer(address to, uint256 amount) external returns (bool) {... */\n    tag_8:\n      tag_35\n      0x04\n      dup1\n      calldatasize\n      sub\n      dup2\n      add\n      swap1\n      tag_36\n      swap2\n      swap1\n      tag_13\n      jump\t// in\n    tag_36:\n      tag_37\n      jump\t// in\n    tag_35:\n      mload(0x40)\n      tag_38\n      swap2\n      swap1\n      tag_16\n      jump\t// in\n    tag_38:\n      mload(0x40)\n      dup1\n      swap2\n      sub\n      swap1\n      return\n        /* \"solidity-study-3/ERC20.sol\":571:635  mapping(address => mapping(address => uint256)) public allowance */\n    tag_9:\n      tag_39\n      0x04\n      dup1\n      calldatasize\n      sub\n      dup2\n      add\n      swap1\n      tag_40\n      swap2\n      swap1\n      tag_41\n      jump\t// in\n    tag_40:\n      tag_42\n      jump\t// in\n    tag_39:\n      mload(0x40)\n      tag_43\n      swap2\n      swap1\n      tag_20\n      jump\t// in\n    tag_43:\n      mload(0x40)\n      dup1\n      swap2\n      sub\n      swap1\n      return\n        /* \"solidity-study-3/ERC20.sol\":1854:2007  function approve(address spender, uint256 amount) external returns (bool){... */\n    tag_14:\n        /* \"solidity-study-3/ERC20.sol\":1922:1926  bool */\n      0x00\n        /* \"solidity-study-3/ERC20.sol\":1971:1977  amount */\n      dup2\n        /* \"solidity-study-3/ERC20.sol\":1938:1947  allowance */\n      0x02\n        /* \"solidity-study-3/ERC20.sol\":1938:1959  allowance[msg.sender] */\n      0x00\n        /* \"solidity-study-3/ERC20.sol\":1948:1958  msg.sender */\n      caller\n        /* \"solidity-study-3/ERC20.sol\":1938:1959  allowance[msg.sender] */\n      0xffffffffffffffffffffffffffffffffffffffff\n      and\n      0xffffffffffffffffffffffffffffffffffffffff\n      and\n      dup2\n      mstore\n      0x20\n      add\n      swap1\n      dup2\n      mstore\n      0x20\n      add\n      0x00\n      keccak256\n        /* \"solidity-study-3/ERC20.sol\":1938:1968  allowance[msg.sender][spender] */\n      0x00\n        /* \"solidity-study-3/ERC20.sol\":1960:1967  spender */\n      dup6\n        /* \"solidity-study-3/ERC20.sol\":1938:1968  allowance[msg.sender][spender] */\n      0xffffffffffffffffffffffffffffffffffffffff\n      and\n      0xffffffffffffffffffffffffffffffffffffffff\n      and\n      dup2\n      mstore\n      0x20\n      add\n      swap1\n      dup2\n      mstore\n      0x20\n      add\n      0x00\n      keccak256\n        /* \"solidity-study-3/ERC20.sol\":1938:1977  allowance[msg.sender][spender] = amount */\n      dup2\n      swap1\n      sstore\n      pop\n        /* \"solidity-study-3/ERC20.sol\":1995:1999  true */\n      0x01\n        /* \"solidity-study-3/ERC20.sol\":1988:1999  return true */\n      swap1\n      pop\n        /* \"solidity-study-3/ERC20.sol\":1854:2007  function approve(address spender, uint256 amount) external returns (bool){... */\n      swap3\n      swap2\n      pop\n      pop\n      jump\t// out\n        /* \"solidity-study-3/ERC20.sol\":486:512  uint256 public totalSupply */\n    tag_18:\n      sload(0x00)\n      dup2\n      jump\t// out\n        /* \"solidity-study-3/ERC20.sol\":2013:2453  function transferFrom(address from, address to, uint256 value) external returns (bool) {... */\n    tag_24:\n        /* \"solidity-study-3/ERC20.sol\":2094:2098  bool */\n      0x00\n        /* \"solidity-study-3/ERC20.sol\":2138:2143  value */\n      dup2\n        /* \"solidity-study-3/ERC20.sol\":2119:2128  balanceOf */\n      0x01\n        /* \"solidity-study-3/ERC20.sol\":2119:2134  balanceOf[from] */\n      0x00\n        /* \"solidity-study-3/ERC20.sol\":2129:2133  from */\n      dup7\n        /* \"solidity-study-3/ERC20.sol\":2119:2134  balanceOf[from] */\n      0xffffffffffffffffffffffffffffffffffffffff\n      and\n      0xffffffffffffffffffffffffffffffffffffffff\n      and\n      dup2\n      mstore\n      0x20\n      add\n      swap1\n      dup2\n      mstore\n      0x20\n      add\n      0x00\n      keccak256\n      sload\n        /* \"solidity-study-3/ERC20.sol\":2119:2143  balanceOf[from] >= value */\n      lt\n      iszero\n        /* \"solidity-study-3/ERC20.sol\":2111:2168  require(balanceOf[from] >= value, \"Insufficient balance\") */\n      tag_46\n      jumpi\n      mload(0x40)\n      0x08c379a000000000000000000000000000000000000000000000000000000000\n      dup2\n      mstore\n      0x04\n      add\n      tag_47\n      swap1\n      tag_48\n      jump\t// in\n    tag_47:\n      mload(0x40)\n      dup1\n      swap2\n      sub\n      swap1\n      revert\n    tag_46:\n        /* \"solidity-study-3/ERC20.sol\":2218:2223  value */\n      dup2\n        /* \"solidity-study-3/ERC20.sol\":2187:2196  allowance */\n      0x02\n        /* \"solidity-study-3/ERC20.sol\":2187:2202  allowance[from] */\n      0x00\n        /* \"solidity-study-3/ERC20.sol\":2197:2201  from */\n      dup7\n        /* \"solidity-study-3/ERC20.sol\":2187:2202  allowance[from] */\n      0xffffffffffffffffffffffffffffffffffffffff\n      and\n      0xffffffffffffffffffffffffffffffffffffffff\n      and\n      dup2\n      mstore\n      0x20\n      add\n      swap1\n      dup2\n      mstore\n      0x20\n      add\n      0x00\n      keccak256\n        /* \"solidity-study-3/ERC20.sol\":2187:2214  allowance[from][msg.sender] */\n      0x00\n        /* \"solidity-study-3/ERC20.sol\":2203:2213  msg.sender */\n      caller\n        /* \"solidity-study-3/ERC20.sol\":2187:2214  allowance[from][msg.sender] */\n      0xffffffffffffffffffffffffffffffffffffffff\n      and\n      0xffffffffffffffffffffffffffffffffffffffff\n      and\n      dup2\n      mstore\n      0x20\n      add\n      swap1\n      dup2\n      mstore\n      0x20\n      add\n      0x00\n      keccak256\n      sload\n        /* \"solidity-study-3/ERC20.sol\":2187:2223  allowance[from][msg.sender] >= value */\n      lt\n      iszero\n        /* \"solidity-study-3/ERC20.sol\":2179:2247  require(allowance[from][msg.sender] >= value, \"Not approved enough\") */\n      tag_49\n      jumpi\n      mload(0x40)\n      0x08c379a000000000000000000000000000000000000000000000000000000000\n      dup2\n      mstore\n      0x04\n      add\n      tag_50\n      swap1\n      tag_51\n      jump\t// in\n    tag_50:\n      mload(0x40)\n      dup1\n      swap2\n      sub\n      swap1\n      revert\n    tag_49:\n        /* \"solidity-study-3/ERC20.sol\":2287:2292  value */\n      dup2\n        /* \"solidity-study-3/ERC20.sol\":2268:2277  balanceOf */\n      0x01\n        /* \"solidity-study-3/ERC20.sol\":2268:2283  balanceOf[from] */\n      0x00\n        /* \"solidity-study-3/ERC20.sol\":2278:2282  from */\n      dup7\n        /* \"solidity-study-3/ERC20.sol\":2268:2283  balanceOf[from] */\n      0xffffffffffffffffffffffffffffffffffffffff\n      and\n      0xffffffffffffffffffffffffffffffffffffffff\n      and\n      dup2\n      mstore\n      0x20\n      add\n      swap1\n      dup2\n      mstore\n      0x20\n      add\n      0x00\n      keccak256\n      0x00\n        /* \"solidity-study-3/ERC20.sol\":2268:2292  balanceOf[from] -= value */\n      dup3\n      dup3\n      sload\n      tag_52\n      swap2\n      swap1\n      tag_53\n      jump\t// in\n    tag_52:\n      swap3\n      pop\n      pop\n      dup2\n      swap1\n      sstore\n      pop\n        /* \"solidity-study-3/ERC20.sol\":2320:2325  value */\n      dup2\n        /* \"solidity-study-3/ERC20.sol\":2303:2312  balanceOf */\n      0x01\n        /* \"solidity-study-3/ERC20.sol\":2303:2316  balanceOf[to] */\n      0x00\n        /* \"solidity-study-3/ERC20.sol\":2313:2315  to */\n      dup6\n        /* \"solidity-study-3/ERC20.sol\":2303:2316  balanceOf[to] */\n      0xffffffffffffffffffffffffffffffffffffffff\n      and\n      0xffffffffffffffffffffffffffffffffffffffff\n      and\n      dup2\n      mstore\n      0x20\n      add\n      swap1\n      dup2\n      mstore\n      0x20\n      add\n      0x00\n      keccak256\n      0x00\n        /* \"solidity-study-3/ERC20.sol\":2303:2325  balanceOf[to] += value */\n      dup3\n      dup3\n      sload\n      tag_54\n      swap2\n      swap1\n      tag_55\n      jump\t// in\n    tag_54:\n      swap3\n      pop\n      pop\n      dup2\n      swap1\n      sstore\n      pop\n        /* \"solidity-study-3/ERC20.sol\":2367:2372  value */\n      dup2\n        /* \"solidity-study-3/ERC20.sol\":2336:2345  allowance */\n      0x02\n        /* \"solidity-study-3/ERC20.sol\":2336:2351  allowance[from] */\n      0x00\n        /* \"solidity-study-3/ERC20.sol\":2346:2350  from */\n      dup7\n        /* \"solidity-study-3/ERC20.sol\":2336:2351  allowance[from] */\n      0xffffffffffffffffffffffffffffffffffffffff\n      and\n      0xffffffffffffffffffffffffffffffffffffffff\n      and\n      dup2\n      mstore\n      0x20\n      add\n      swap1\n      dup2\n      mstore\n      0x20\n      add\n      0x00\n      keccak256\n        /* \"solidity-study-3/ERC20.sol\":2336:2363  allowance[from][msg.sender] */\n      0x00\n        /* \"solidity-study-3/ERC20.sol\":2352:2362  msg.sender */\n      caller\n        /* \"solidity-study-3/ERC20.sol\":2336:2363  allowance[from][msg.sender] */\n      0xffffffffffffffffffffffffffffffffffffffff\n      and\n      0xffffffffffffffffffffffffffffffffffffffff\n      and\n      dup2\n      mstore\n      0x20\n      add\n      swap1\n      dup2\n      mstore\n      0x20\n      add\n      0x00\n      keccak256\n      0x00\n        /* \"solidity-study-3/ERC20.sol\":2336:2372  allowance[from][msg.sender] -= value */\n      dup3\n      dup3\n      sload\n      tag_56\n      swap2\n      swap1\n      tag_53\n      jump\t// in\n    tag_56:\n      swap3\n      pop\n      pop\n      dup2\n      swap1\n      sstore\n      pop\n        /* \"solidity-study-3/ERC20.sol\":2398:2423  Transfer(from, to, value) */\n      0xddf252ad1be2c89b69c2b068fc378daa952ba7f163c4a11628f55a4df523b3ef\n        /* \"solidity-study-3/ERC20.sol\":2407:2411  from */\n      dup5\n        /* \"solidity-study-3/ERC20.sol\":2413:2415  to */\n      dup5\n        /* \"solidity-study-3/ERC20.sol\":2417:2422  value */\n      dup5\n        /* \"solidity-study-3/ERC20.sol\":2398:2423  Transfer(from, to, value) */\n      mload(0x40)\n      tag_57\n      swap4\n      swap3\n      swap2\n      swap1\n      tag_58\n      jump\t// in\n    tag_57:\n      mload(0x40)\n      dup1\n      swap2\n      sub\n      swap1\n      log1\n        /* \"solidity-study-3/ERC20.sol\":2441:2445  true */\n      0x01\n        /* \"solidity-study-3/ERC20.sol\":2434:2445  return true */\n      swap1\n      pop\n        /* \"solidity-study-3/ERC20.sol\":2013:2453  function transferFrom(address from, address to, uint256 value) external returns (bool) {... */\n      swap4\n      swap3\n      pop\n      pop\n      pop\n      jump\t// out\n        /* \"solidity-study-3/ERC20.sol\":519:564  mapping(address => uint256) public  balanceOf */\n    tag_29:\n      mstore(0x20, 0x01)\n      dup1\n      0x00\n      mstore\n      keccak256(0x00, 0x40)\n      0x00\n      swap2\n      pop\n      swap1\n      pop\n      sload\n      dup2\n      jump\t// out\n        /* \"solidity-study-3/ERC20.sol\":1513:1685  function mint(uint256 value) external{... */\n    tag_34:\n        /* \"solidity-study-3/ERC20.sol\":1586:1591  value */\n      dup1\n        /* \"solidity-study-3/ERC20.sol\":1561:1570  balanceOf */\n      0x01\n        /* \"solidity-study-3/ERC20.sol\":1561:1582  balanceOf[msg.sender] */\n      0x00\n        /* \"solidity-study-3/ERC20.sol\":1571:1581  msg.sender */\n      caller\n        /* \"solidity-study-3/ERC20.sol\":1561:1582  balanceOf[msg.sender] */\n      0xffffffffffffffffffffffffffffffffffffffff\n      and\n      0xffffffffffffffffffffffffffffffffffffffff\n      and\n      dup2\n      mstore\n      0x20\n      add\n      swap1\n      dup2\n      mstore\n      0x20\n      add\n      0x00\n      keccak256\n      0x00\n        /* \"solidity-study-3/ERC20.sol\":1561:1591  balanceOf[msg.sender] += value */\n      dup3\n      dup3\n      sload\n      tag_60\n      swap2\n      swap1\n      tag_55\n      jump\t// in\n    tag_60:\n      swap3\n      pop\n      pop\n      dup2\n      swap1\n      sstore\n      pop\n        /* \"solidity-study-3/ERC20.sol\":1617:1622  value */\n      dup1\n        /* \"solidity-study-3/ERC20.sol\":1602:1613  totalSupply */\n      0x00\n      dup1\n        /* \"solidity-study-3/ERC20.sol\":1602:1622  totalSupply += value */\n      dup3\n      dup3\n      sload\n      tag_61\n      swap2\n      swap1\n      tag_55\n      jump\t// in\n    tag_61:\n      swap3\n      pop\n      pop\n      dup2\n      swap1\n      sstore\n      pop\n        /* \"solidity-study-3/ERC20.sol\":1638:1677  Transfer(address(0), msg.sender, value) */\n      0xddf252ad1be2c89b69c2b068fc378daa952ba7f163c4a11628f55a4df523b3ef\n        /* \"solidity-study-3/ERC20.sol\":1655:1656  0 */\n      0x00\n        /* \"solidity-study-3/ERC20.sol\":1659:1669  msg.sender */\n      caller\n        /* \"solidity-study-3/ERC20.sol\":1671:1676  value */\n      dup4\n        /* \"solidity-study-3/ERC20.sol\":1638:1677  Transfer(address(0), msg.sender, value) */\n      mload(0x40)\n      tag_62\n      swap4\n      swap3\n      swap2\n      swap1\n      tag_58\n      jump\t// in\n    tag_62:\n      mload(0x40)\n      dup1\n      swap2\n      sub\n      swap1\n      log1\n        /* \"solidity-study-3/ERC20.sol\":1513:1685  function mint(uint256 value) external{... */\n      pop\n      jump\t// out\n        /* \"solidity-study-3/ERC20.sol\":1129:1492  function transfer(address to, uint256 amount) external returns (bool) {... */\n    tag_37:\n        /* \"solidity-study-3/ERC20.sol\":1193:1197  bool */\n      0x00\n        /* \"solidity-study-3/ERC20.sol\":1232:1233  0 */\n      dup1\n        /* \"solidity-study-3/ERC20.sol\":1218:1234  to != address(0) */\n      0xffffffffffffffffffffffffffffffffffffffff\n      and\n        /* \"solidity-study-3/ERC20.sol\":1218:1220  to */\n      dup4\n        /* \"solidity-study-3/ERC20.sol\":1218:1234  to != address(0) */\n      0xffffffffffffffffffffffffffffffffffffffff\n      and\n      sub\n        /* \"solidity-study-3/ERC20.sol\":1210:1263  require(to != address(0), \"Transfer to zero address\") */\n      tag_64\n      jumpi\n      mload(0x40)\n      0x08c379a000000000000000000000000000000000000000000000000000000000\n      dup2\n      mstore\n      0x04\n      add\n      tag_65\n      swap1\n      tag_66\n      jump\t// in\n    tag_65:\n      mload(0x40)\n      dup1\n      swap2\n      sub\n      swap1\n      revert\n    tag_64:\n        /* \"solidity-study-3/ERC20.sol\":1307:1313  amount */\n      dup2\n        /* \"solidity-study-3/ERC20.sol\":1282:1291  balanceOf */\n      0x01\n        /* \"solidity-study-3/ERC20.sol\":1282:1303  balanceOf[msg.sender] */\n      0x00\n        /* \"solidity-study-3/ERC20.sol\":1292:1302  msg.sender */\n      caller\n        /* \"solidity-study-3/ERC20.sol\":1282:1303  balanceOf[msg.sender] */\n      0xffffffffffffffffffffffffffffffffffffffff\n      and\n      0xffffffffffffffffffffffffffffffffffffffff\n      and\n      dup2\n      mstore\n      0x20\n      add\n      swap1\n      dup2\n      mstore\n      0x20\n      add\n      0x00\n      keccak256\n      sload\n        /* \"solidity-study-3/ERC20.sol\":1282:1313  balanceOf[msg.sender] >= amount */\n      lt\n      iszero\n        /* \"solidity-study-3/ERC20.sol\":1274:1338  require(balanceOf[msg.sender] >= amount, \"Insufficient balance\") */\n      tag_67\n      jumpi\n      mload(0x40)\n      0x08c379a000000000000000000000000000000000000000000000000000000000\n      dup2\n      mstore\n      0x04\n      add\n      tag_68\n      swap1\n      tag_48\n      jump\t// in\n    tag_68:\n      mload(0x40)\n      dup1\n      swap2\n      sub\n      swap1\n      revert\n    tag_67:\n        /* \"solidity-study-3/ERC20.sol\":1374:1380  amount */\n      dup2\n        /* \"solidity-study-3/ERC20.sol\":1349:1358  balanceOf */\n      0x01\n        /* \"solidity-study-3/ERC20.sol\":1349:1370  balanceOf[msg.sender] */\n      0x00\n        /* \"solidity-study-3/ERC20.sol\":1359:1369  msg.sender */\n      caller\n        /* \"solidity-study-3/ERC20.sol\":1349:1370  balanceOf[msg.sender] */\n      0xffffffffffffffffffffffffffffffffffffffff\n      and\n      0xffffffffffffffffffffffffffffffffffffffff\n      and\n      dup2\n      mstore\n      0x20\n      add\n      swap1\n      dup2\n      mstore\n      0x20\n      add\n      0x00\n      keccak256\n      0x00\n        /* \"solidity-study-3/ERC20.sol\":1349:1380  balanceOf[msg.sender] -= amount */\n      dup3\n      dup3\n      sload\n      tag_69\n      swap2\n      swap1\n      tag_53\n      jump\t// in\n    tag_69:\n      swap3\n      pop\n      pop\n      dup2\n      swap1\n      sstore\n      pop\n        /* \"solidity-study-3/ERC20.sol\":1408:1414  amount */\n      dup2\n        /* \"solidity-study-3/ERC20.sol\":1391:1400  balanceOf */\n      0x01\n        /* \"solidity-study-3/ERC20.sol\":1391:1404  balanceOf[to] */\n      0x00\n        /* \"solidity-study-3/ERC20.sol\":1401:1403  to */\n      dup6\n        /* \"solidity-study-3/ERC20.sol\":1391:1404  balanceOf[to] */\n      0xffffffffffffffffffffffffffffffffffffffff\n      and\n      0xffffffffffffffffffffffffffffffffffffffff\n      and\n      dup2\n      mstore\n      0x20\n      add\n      swap1\n      dup2\n      mstore\n      0x20\n      add\n      0x00\n      keccak256\n      0x00\n        /* \"solidity-study-3/ERC20.sol\":1391:1414  balanceOf[to] += amount */\n      dup3\n      dup3\n      sload\n      tag_70\n      swap2\n      swap1\n      tag_55\n      jump\t// in\n    tag_70:\n      swap3\n      pop\n      pop\n      dup2\n      swap1\n      sstore\n      pop\n        /* \"solidity-study-3/ERC20.sol\":1430:1462  Transfer(msg.sender, to, amount) */\n      0xddf252ad1be2c89b69c2b068fc378daa952ba7f163c4a11628f55a4df523b3ef\n        /* \"solidity-study-3/ERC20.sol\":1439:1449  msg.sender */\n      caller\n        /* \"solidity-study-3/ERC20.sol\":1451:1453  to */\n      dup5\n        /* \"solidity-study-3/ERC20.sol\":1455:1461  amount */\n      dup5\n        /* \"solidity-study-3/ERC20.sol\":1430:1462  Transfer(msg.sender, to, amount) */\n      mload(0x40)\n      tag_71\n      swap4\n      swap3\n      swap2\n      swap1\n      tag_58\n      jump\t// in\n    tag_71:\n      mload(0x40)\n      dup1\n      swap2\n      sub\n      swap1\n      log1\n        /* \"solidity-study-3/ERC20.sol\":1480:1484  true */\n      0x01\n        /* \"solidity-study-3/ERC20.sol\":1473:1484  return true */\n      swap1\n      pop\n        /* \"solidity-study-3/ERC20.sol\":1129:1492  function transfer(address to, uint256 amount) external returns (bool) {... */\n      swap3\n      swap2\n      pop\n      pop\n      jump\t// out\n        /* \"solidity-study-3/ERC20.sol\":571:635  mapping(address => mapping(address => uint256)) public allowance */\n    tag_42:\n      mstore(0x20, 0x02)\n      dup2\n      0x00\n      mstore\n      mstore(0x20, keccak256(0x00, 0x40))\n      dup1\n      0x00\n      mstore\n      keccak256(0x00, 0x40)\n      0x00\n      swap2\n      pop\n      swap2\n      pop\n      pop\n      sload\n      dup2\n      jump\t// out\n        /* \"#utility.yul\":88:205   */\n    tag_73:\n        /* \"#utility.yul\":197:198   */\n      0x00\n        /* \"#utility.yul\":194:195   */\n      dup1\n        /* \"#utility.yul\":187:199   */\n      revert\n        /* \"#utility.yul\":334:460   */\n    tag_75:\n        /* \"#utility.yul\":371:378   */\n      0x00\n        /* \"#utility.yul\":411:453   */\n      0xffffffffffffffffffffffffffffffffffffffff\n        /* \"#utility.yul\":404:409   */\n      dup3\n        /* \"#utility.yul\":400:454   */\n      and\n        /* \"#utility.yul\":389:454   */\n      swap1\n      pop\n        /* \"#utility.yul\":334:460   */\n      swap2\n      swap1\n      pop\n      jump\t// out\n        /* \"#utility.yul\":466:562   */\n    tag_76:\n        /* \"#utility.yul\":503:510   */\n      0x00\n        /* \"#utility.yul\":532:556   */\n      tag_100\n        /* \"#utility.yul\":550:555   */\n      dup3\n        /* \"#utility.yul\":532:556   */\n      tag_75\n      jump\t// in\n    tag_100:\n        /* \"#utility.yul\":521:556   */\n      swap1\n      pop\n        /* \"#utility.yul\":466:562   */\n      swap2\n      swap1\n      pop\n      jump\t// out\n        /* \"#utility.yul\":568:690   */\n    tag_77:\n        /* \"#utility.yul\":641:665   */\n      tag_102\n        /* \"#utility.yul\":659:664   */\n      dup2\n        /* \"#utility.yul\":641:665   */\n      tag_76\n      jump\t// in\n    tag_102:\n        /* \"#utility.yul\":634:639   */\n      dup2\n        /* \"#utility.yul\":631:666   */\n      eq\n        /* \"#utility.yul\":621:684   */\n      tag_103\n      jumpi\n        /* \"#utility.yul\":680:681   */\n      0x00\n        /* \"#utility.yul\":677:678   */\n      dup1\n        /* \"#utility.yul\":670:682   */\n      revert\n        /* \"#utility.yul\":621:684   */\n    tag_103:\n        /* \"#utility.yul\":568:690   */\n      pop\n      jump\t// out\n        /* \"#utility.yul\":696:835   */\n    tag_78:\n        /* \"#utility.yul\":742:747   */\n      0x00\n        /* \"#utility.yul\":780:786   */\n      dup2\n        /* \"#utility.yul\":767:787   */\n      calldataload\n        /* \"#utility.yul\":758:787   */\n      swap1\n      pop\n        /* \"#utility.yul\":796:829   */\n      tag_105\n        /* \"#utility.yul\":823:828   */\n      dup2\n        /* \"#utility.yul\":796:829   */\n      tag_77\n      jump\t// in\n    tag_105:\n        /* \"#utility.yul\":696:835   */\n      swap3\n      swap2\n      pop\n      pop\n      jump\t// out\n        /* \"#utility.yul\":841:918   */\n    tag_79:\n        /* \"#utility.yul\":878:885   */\n      0x00\n        /* \"#utility.yul\":907:912   */\n      dup2\n        /* \"#utility.yul\":896:912   */\n      swap1\n      pop\n        /* \"#utility.yul\":841:918   */\n      swap2\n      swap1\n      pop\n      jump\t// out\n        /* \"#utility.yul\":924:1046   */\n    tag_80:\n        /* \"#utility.yul\":997:1021   */\n      tag_108\n        /* \"#utility.yul\":1015:1020   */\n      dup2\n        /* \"#utility.yul\":997:1021   */\n      tag_79\n      jump\t// in\n    tag_108:\n        /* \"#utility.yul\":990:995   */\n      dup2\n        /* \"#utility.yul\":987:1022   */\n      eq\n        /* \"#utility.yul\":977:1040   */\n      tag_109\n      jumpi\n        /* \"#utility.yul\":1036:1037   */\n      0x00\n        /* \"#utility.yul\":1033:1034   */\n      dup1\n        /* \"#utility.yul\":1026:1038   */\n      revert\n        /* \"#utility.yul\":977:1040   */\n    tag_109:\n        /* \"#utility.yul\":924:1046   */\n      pop\n      jump\t// out\n        /* \"#utility.yul\":1052:1191   */\n    tag_81:\n        /* \"#utility.yul\":1098:1103   */\n      0x00\n        /* \"#utility.yul\":1136:1142   */\n      dup2\n        /* \"#utility.yul\":1123:1143   */\n      calldataload\n        /* \"#utility.yul\":1114:1143   */\n      swap1\n      pop\n        /* \"#utility.yul\":1152:1185   */\n      tag_111\n        /* \"#utility.yul\":1179:1184   */\n      dup2\n        /* \"#utility.yul\":1152:1185   */\n      tag_80\n      jump\t// in\n    tag_111:\n        /* \"#utility.yul\":1052:1191   */\n      swap3\n      swap2\n      pop\n      pop\n      jump\t// out\n        /* \"#utility.yul\":1197:1671   */\n    tag_13:\n        /* \"#utility.yul\":1265:1271   */\n      0x00\n        /* \"#utility.yul\":1273:1279   */\n      dup1\n        /* \"#utility.yul\":1322:1324   */\n      0x40\n        /* \"#utility.yul\":1310:1319   */\n      dup4\n        /* \"#utility.yul\":1301:1308   */\n      dup6\n        /* \"#utility.yul\":1297:1320   */\n      sub\n        /* \"#utility.yul\":1293:1325   */\n      slt\n        /* \"#utility.yul\":1290:1409   */\n      iszero\n      tag_113\n      jumpi\n        /* \"#utility.yul\":1328:1407   */\n      tag_114\n      tag_73\n      jump\t// in\n    tag_114:\n        /* \"#utility.yul\":1290:1409   */\n    tag_113:\n        /* \"#utility.yul\":1448:1449   */\n      0x00\n        /* \"#utility.yul\":1473:1526   */\n      tag_115\n        /* \"#utility.yul\":1518:1525   */\n      dup6\n        /* \"#utility.yul\":1509:1515   */\n      dup3\n        /* \"#utility.yul\":1498:1507   */\n      dup7\n        /* \"#utility.yul\":1494:1516   */\n      add\n        /* \"#utility.yul\":1473:1526   */\n      tag_78\n      jump\t// in\n    tag_115:\n        /* \"#utility.yul\":1463:1526   */\n      swap3\n      pop\n        /* \"#utility.yul\":1419:1536   */\n      pop\n        /* \"#utility.yul\":1575:1577   */\n      0x20\n        /* \"#utility.yul\":1601:1654   */\n      tag_116\n        /* \"#utility.yul\":1646:1653   */\n      dup6\n        /* \"#utility.yul\":1637:1643   */\n      dup3\n        /* \"#utility.yul\":1626:1635   */\n      dup7\n        /* \"#utility.yul\":1622:1644   */\n      add\n        /* \"#utility.yul\":1601:1654   */\n      tag_81\n      jump\t// in\n    tag_116:\n        /* \"#utility.yul\":1591:1654   */\n      swap2\n      pop\n        /* \"#utility.yul\":1546:1664   */\n      pop\n        /* \"#utility.yul\":1197:1671   */\n      swap3\n      pop\n      swap3\n      swap1\n      pop\n      jump\t// out\n        /* \"#utility.yul\":1677:1767   */\n    tag_82:\n        /* \"#utility.yul\":1711:1718   */\n      0x00\n        /* \"#utility.yul\":1754:1759   */\n      dup2\n        /* \"#utility.yul\":1747:1760   */\n      iszero\n        /* \"#utility.yul\":1740:1761   */\n      iszero\n        /* \"#utility.yul\":1729:1761   */\n      swap1\n      pop\n        /* \"#utility.yul\":1677:1767   */\n      swap2\n      swap1\n      pop\n      jump\t// out\n        /* \"#utility.yul\":1773:1882   */\n    tag_83:\n        /* \"#utility.yul\":1854:1875   */\n      tag_119\n        /* \"#utility.yul\":1869:1874   */\n      dup2\n        /* \"#utility.yul\":1854:1875   */\n      tag_82\n      jump\t// in\n    tag_119:\n        /* \"#utility.yul\":1849:1852   */\n      dup3\n        /* \"#utility.yul\":1842:1876   */\n      mstore\n        /* \"#utility.yul\":1773:1882   */\n      pop\n      pop\n      jump\t// out\n        /* \"#utility.yul\":1888:2098   */\n    tag_16:\n        /* \"#utility.yul\":1975:1979   */\n      0x00\n        /* \"#utility.yul\":2013:2015   */\n      0x20\n        /* \"#utility.yul\":2002:2011   */\n      dup3\n        /* \"#utility.yul\":1998:2016   */\n      add\n        /* \"#utility.yul\":1990:2016   */\n      swap1\n      pop\n        /* \"#utility.yul\":2026:2091   */\n      tag_121\n        /* \"#utility.yul\":2088:2089   */\n      0x00\n        /* \"#utility.yul\":2077:2086   */\n      dup4\n        /* \"#utility.yul\":2073:2090   */\n      add\n        /* \"#utility.yul\":2064:2070   */\n      dup5\n        /* \"#utility.yul\":2026:2091   */\n      tag_83\n      jump\t// in\n    tag_121:\n        /* \"#utility.yul\":1888:2098   */\n      swap3\n      swap2\n      pop\n      pop\n      jump\t// out\n        /* \"#utility.yul\":2104:2222   */\n    tag_84:\n        /* \"#utility.yul\":2191:2215   */\n      tag_123\n        /* \"#utility.yul\":2209:2214   */\n      dup2\n        /* \"#utility.yul\":2191:2215   */\n      tag_79\n      jump\t// in\n    tag_123:\n        /* \"#utility.yul\":2186:2189   */\n      dup3\n        /* \"#utility.yul\":2179:2216   */\n      mstore\n        /* \"#utility.yul\":2104:2222   */\n      pop\n      pop\n      jump\t// out\n        /* \"#utility.yul\":2228:2450   */\n    tag_20:\n        /* \"#utility.yul\":2321:2325   */\n      0x00\n        /* \"#utility.yul\":2359:2361   */\n      0x20\n        /* \"#utility.yul\":2348:2357   */\n      dup3\n        /* \"#utility.yul\":2344:2362   */\n      add\n        /* \"#utility.yul\":2336:2362   */\n      swap1\n      pop\n        /* \"#utility.yul\":2372:2443   */\n      tag_125\n        /* \"#utility.yul\":2440:2441   */\n      0x00\n        /* \"#utility.yul\":2429:2438   */\n      dup4\n        /* \"#utility.yul\":2425:2442   */\n      add\n        /* \"#utility.yul\":2416:2422   */\n      dup5\n        /* \"#utility.yul\":2372:2443   */\n      tag_84\n      jump\t// in\n    tag_125:\n        /* \"#utility.yul\":2228:2450   */\n      swap3\n      swap2\n      pop\n      pop\n      jump\t// out\n        /* \"#utility.yul\":2456:3075   */\n    tag_23:\n        /* \"#utility.yul\":2533:2539   */\n      0x00\n        /* \"#utility.yul\":2541:2547   */\n      dup1\n        /* \"#utility.yul\":2549:2555   */\n      0x00\n        /* \"#utility.yul\":2598:2600   */\n      0x60\n        /* \"#utility.yul\":2586:2595   */\n      dup5\n        /* \"#utility.yul\":2577:2584   */\n      dup7\n        /* \"#utility.yul\":2573:2596   */\n      sub\n        /* \"#utility.yul\":2569:2601   */\n      slt\n        /* \"#utility.yul\":2566:2685   */\n      iszero\n      tag_127\n      jumpi\n        /* \"#utility.yul\":2604:2683   */\n      tag_128\n      tag_73\n      jump\t// in\n    tag_128:\n        /* \"#utility.yul\":2566:2685   */\n    tag_127:\n        /* \"#utility.yul\":2724:2725   */\n      0x00\n        /* \"#utility.yul\":2749:2802   */\n      tag_129\n        /* \"#utility.yul\":2794:2801   */\n      dup7\n        /* \"#utility.yul\":2785:2791   */\n      dup3\n        /* \"#utility.yul\":2774:2783   */\n      dup8\n        /* \"#utility.yul\":2770:2792   */\n      add\n        /* \"#utility.yul\":2749:2802   */\n      tag_78\n      jump\t// in\n    tag_129:\n        /* \"#utility.yul\":2739:2802   */\n      swap4\n      pop\n        /* \"#utility.yul\":2695:2812   */\n      pop\n        /* \"#utility.yul\":2851:2853   */\n      0x20\n        /* \"#utility.yul\":2877:2930   */\n      tag_130\n        /* \"#utility.yul\":2922:2929   */\n      dup7\n        /* \"#utility.yul\":2913:2919   */\n      dup3\n        /* \"#utility.yul\":2902:2911   */\n      dup8\n        /* \"#utility.yul\":2898:2920   */\n      add\n        /* \"#utility.yul\":2877:2930   */\n      tag_78\n      jump\t// in\n    tag_130:\n        /* \"#utility.yul\":2867:2930   */\n      swap3\n      pop\n        /* \"#utility.yul\":2822:2940   */\n      pop\n        /* \"#utility.yul\":2979:2981   */\n      0x40\n        /* \"#utility.yul\":3005:3058   */\n      tag_131\n        /* \"#utility.yul\":3050:3057   */\n      dup7\n        /* \"#utility.yul\":3041:3047   */\n      dup3\n        /* \"#utility.yul\":3030:3039   */\n      dup8\n        /* \"#utility.yul\":3026:3048   */\n      add\n        /* \"#utility.yul\":3005:3058   */\n      tag_81\n      jump\t// in\n    tag_131:\n        /* \"#utility.yul\":2995:3058   */\n      swap2\n      pop\n        /* \"#utility.yul\":2950:3068   */\n      pop\n        /* \"#utility.yul\":2456:3075   */\n      swap3\n      pop\n      swap3\n      pop\n      swap3\n      jump\t// out\n        /* \"#utility.yul\":3081:3410   */\n    tag_28:\n        /* \"#utility.yul\":3140:3146   */\n      0x00\n        /* \"#utility.yul\":3189:3191   */\n      0x20\n        /* \"#utility.yul\":3177:3186   */\n      dup3\n        /* \"#utility.yul\":3168:3175   */\n      dup5\n        /* \"#utility.yul\":3164:3187   */\n      sub\n        /* \"#utility.yul\":3160:3192   */\n      slt\n        /* \"#utility.yul\":3157:3276   */\n      iszero\n      tag_133\n      jumpi\n        /* \"#utility.yul\":3195:3274   */\n      tag_134\n      tag_73\n      jump\t// in\n    tag_134:\n        /* \"#utility.yul\":3157:3276   */\n    tag_133:\n        /* \"#utility.yul\":3315:3316   */\n      0x00\n        /* \"#utility.yul\":3340:3393   */\n      tag_135\n        /* \"#utility.yul\":3385:3392   */\n      dup5\n        /* \"#utility.yul\":3376:3382   */\n      dup3\n        /* \"#utility.yul\":3365:3374   */\n      dup6\n        /* \"#utility.yul\":3361:3383   */\n      add\n        /* \"#utility.yul\":3340:3393   */\n      tag_78\n      jump\t// in\n    tag_135:\n        /* \"#utility.yul\":3330:3393   */\n      swap2\n      pop\n        /* \"#utility.yul\":3286:3403   */\n      pop\n        /* \"#utility.yul\":3081:3410   */\n      swap3\n      swap2\n      pop\n      pop\n      jump\t// out\n        /* \"#utility.yul\":3416:3745   */\n    tag_33:\n        /* \"#utility.yul\":3475:3481   */\n      0x00\n        /* \"#utility.yul\":3524:3526   */\n      0x20\n        /* \"#utility.yul\":3512:3521   */\n      dup3\n        /* \"#utility.yul\":3503:3510   */\n      dup5\n        /* \"#utility.yul\":3499:3522   */\n      sub\n        /* \"#utility.yul\":3495:3527   */\n      slt\n        /* \"#utility.yul\":3492:3611   */\n      iszero\n      tag_137\n      jumpi\n        /* \"#utility.yul\":3530:3609   */\n      tag_138\n      tag_73\n      jump\t// in\n    tag_138:\n        /* \"#utility.yul\":3492:3611   */\n    tag_137:\n        /* \"#utility.yul\":3650:3651   */\n      0x00\n        /* \"#utility.yul\":3675:3728   */\n      tag_139\n        /* \"#utility.yul\":3720:3727   */\n      dup5\n        /* \"#utility.yul\":3711:3717   */\n      dup3\n        /* \"#utility.yul\":3700:3709   */\n      dup6\n        /* \"#utility.yul\":3696:3718   */\n      add\n        /* \"#utility.yul\":3675:3728   */\n      tag_81\n      jump\t// in\n    tag_139:\n        /* \"#utility.yul\":3665:3728   */\n      swap2\n      pop\n        /* \"#utility.yul\":3621:3738   */\n      pop\n        /* \"#utility.yul\":3416:3745   */\n      swap3\n      swap2\n      pop\n      pop\n      jump\t// out\n        /* \"#utility.yul\":3751:4225   */\n    tag_41:\n        /* \"#utility.yul\":3819:3825   */\n      0x00\n        /* \"#utility.yul\":3827:3833   */\n      dup1\n        /* \"#utility.yul\":3876:3878   */\n      0x40\n        /* \"#utility.yul\":3864:3873   */\n      dup4\n        /* \"#utility.yul\":3855:3862   */\n      dup6\n        /* \"#utility.yul\":3851:3874   */\n      sub\n        /* \"#utility.yul\":3847:3879   */\n      slt\n        /* \"#utility.yul\":3844:3963   */\n      iszero\n      tag_141\n      jumpi\n        /* \"#utility.yul\":3882:3961   */\n      tag_142\n      tag_73\n      jump\t// in\n    tag_142:\n        /* \"#utility.yul\":3844:3963   */\n    tag_141:\n        /* \"#utility.yul\":4002:4003   */\n      0x00\n        /* \"#utility.yul\":4027:4080   */\n      tag_143\n        /* \"#utility.yul\":4072:4079   */\n      dup6\n        /* \"#utility.yul\":4063:4069   */\n      dup3\n        /* \"#utility.yul\":4052:4061   */\n      dup7\n        /* \"#utility.yul\":4048:4070   */\n      add\n        /* \"#utility.yul\":4027:4080   */\n      tag_78\n      jump\t// in\n    tag_143:\n        /* \"#utility.yul\":4017:4080   */\n      swap3\n      pop\n        /* \"#utility.yul\":3973:4090   */\n      pop\n        /* \"#utility.yul\":4129:4131   */\n      0x20\n        /* \"#utility.yul\":4155:4208   */\n      tag_144\n        /* \"#utility.yul\":4200:4207   */\n      dup6\n        /* \"#utility.yul\":4191:4197   */\n      dup3\n        /* \"#utility.yul\":4180:4189   */\n      dup7\n        /* \"#utility.yul\":4176:4198   */\n      add\n        /* \"#utility.yul\":4155:4208   */\n      tag_78\n      jump\t// in\n    tag_144:\n        /* \"#utility.yul\":4145:4208   */\n      swap2\n      pop\n        /* \"#utility.yul\":4100:4218   */\n      pop\n        /* \"#utility.yul\":3751:4225   */\n      swap3\n      pop\n      swap3\n      swap1\n      pop\n      jump\t// out\n        /* \"#utility.yul\":4231:4400   */\n    tag_85:\n        /* \"#utility.yul\":4315:4326   */\n      0x00\n        /* \"#utility.yul\":4349:4355   */\n      dup3\n        /* \"#utility.yul\":4344:4347   */\n      dup3\n        /* \"#utility.yul\":4337:4356   */\n      mstore\n        /* \"#utility.yul\":4389:4393   */\n      0x20\n        /* \"#utility.yul\":4384:4387   */\n      dup3\n        /* \"#utility.yul\":4380:4394   */\n      add\n        /* \"#utility.yul\":4365:4394   */\n      swap1\n      pop\n        /* \"#utility.yul\":4231:4400   */\n      swap3\n      swap2\n      pop\n      pop\n      jump\t// out\n        /* \"#utility.yul\":4406:4576   */\n    tag_86:\n        /* \"#utility.yul\":4546:4568   */\n      0x496e73756666696369656e742062616c616e6365000000000000000000000000\n        /* \"#utility.yul\":4542:4543   */\n      0x00\n        /* \"#utility.yul\":4534:4540   */\n      dup3\n        /* \"#utility.yul\":4530:4544   */\n      add\n        /* \"#utility.yul\":4523:4569   */\n      mstore\n        /* \"#utility.yul\":4406:4576   */\n      pop\n      jump\t// out\n        /* \"#utility.yul\":4582:4948   */\n    tag_87:\n        /* \"#utility.yul\":4724:4727   */\n      0x00\n        /* \"#utility.yul\":4745:4812   */\n      tag_148\n        /* \"#utility.yul\":4809:4811   */\n      0x14\n        /* \"#utility.yul\":4804:4807   */\n      dup4\n        /* \"#utility.yul\":4745:4812   */\n      tag_85\n      jump\t// in\n    tag_148:\n        /* \"#utility.yul\":4738:4812   */\n      swap2\n      pop\n        /* \"#utility.yul\":4821:4914   */\n      tag_149\n        /* \"#utility.yul\":4910:4913   */\n      dup3\n        /* \"#utility.yul\":4821:4914   */\n      tag_86\n      jump\t// in\n    tag_149:\n        /* \"#utility.yul\":4939:4941   */\n      0x20\n        /* \"#utility.yul\":4934:4937   */\n      dup3\n        /* \"#utility.yul\":4930:4942   */\n      add\n        /* \"#utility.yul\":4923:4942   */\n      swap1\n      pop\n        /* \"#utility.yul\":4582:4948   */\n      swap2\n      swap1\n      pop\n      jump\t// out\n        /* \"#utility.yul\":4954:5373   */\n    tag_48:\n        /* \"#utility.yul\":5120:5124   */\n      0x00\n        /* \"#utility.yul\":5158:5160   */\n      0x20\n        /* \"#utility.yul\":5147:5156   */\n      dup3\n        /* \"#utility.yul\":5143:5161   */\n      add\n        /* \"#utility.yul\":5135:5161   */\n      swap1\n      pop\n        /* \"#utility.yul\":5207:5216   */\n      dup2\n        /* \"#utility.yul\":5201:5205   */\n      dup2\n        /* \"#utility.yul\":5197:5217   */\n      sub\n        /* \"#utility.yul\":5193:5194   */\n      0x00\n        /* \"#utility.yul\":5182:5191   */\n      dup4\n        /* \"#utility.yul\":5178:5195   */\n      add\n        /* \"#utility.yul\":5171:5218   */\n      mstore\n        /* \"#utility.yul\":5235:5366   */\n      tag_151\n        /* \"#utility.yul\":5361:5365   */\n      dup2\n        /* \"#utility.yul\":5235:5366   */\n      tag_87\n      jump\t// in\n    tag_151:\n        /* \"#utility.yul\":5227:5366   */\n      swap1\n      pop\n        /* \"#utility.yul\":4954:5373   */\n      swap2\n      swap1\n      pop\n      jump\t// out\n        /* \"#utility.yul\":5379:5548   */\n    tag_88:\n        /* \"#utility.yul\":5519:5540   */\n      0x4e6f7420617070726f76656420656e6f75676800000000000000000000000000\n        /* \"#utility.yul\":5515:5516   */\n      0x00\n        /* \"#utility.yul\":5507:5513   */\n      dup3\n        /* \"#utility.yul\":5503:5517   */\n      add\n        /* \"#utility.yul\":5496:5541   */\n      mstore\n        /* \"#utility.yul\":5379:5548   */\n      pop\n      jump\t// out\n        /* \"#utility.yul\":5554:5920   */\n    tag_89:\n        /* \"#utility.yul\":5696:5699   */\n      0x00\n        /* \"#utility.yul\":5717:5784   */\n      tag_154\n        /* \"#utility.yul\":5781:5783   */\n      0x13\n        /* \"#utility.yul\":5776:5779   */\n      dup4\n        /* \"#utility.yul\":5717:5784   */\n      tag_85\n      jump\t// in\n    tag_154:\n        /* \"#utility.yul\":5710:5784   */\n      swap2\n      pop\n        /* \"#utility.yul\":5793:5886   */\n      tag_155\n        /* \"#utility.yul\":5882:5885   */\n      dup3\n        /* \"#utility.yul\":5793:5886   */\n      tag_88\n      jump\t// in\n    tag_155:\n        /* \"#utility.yul\":5911:5913   */\n      0x20\n        /* \"#utility.yul\":5906:5909   */\n      dup3\n        /* \"#utility.yul\":5902:5914   */\n      add\n        /* \"#utility.yul\":5895:5914   */\n      swap1\n      pop\n        /* \"#utility.yul\":5554:5920   */\n      swap2\n      swap1\n      pop\n      jump\t// out\n        /* \"#utility.yul\":5926:6345   */\n    tag_51:\n        /* \"#utility.yul\":6092:6096   */\n      0x00\n        /* \"#utility.yul\":6130:6132   */\n      0x20\n        /* \"#utility.yul\":6119:6128   */\n      dup3\n        /* \"#utility.yul\":6115:6133   */\n      add\n        /* \"#utility.yul\":6107:6133   */\n      swap1\n      pop\n        /* \"#utility.yul\":6179:6188   */\n      dup2\n        /* \"#utility.yul\":6173:6177   */\n      dup2\n        /* \"#utility.yul\":6169:6189   */\n      sub\n        /* \"#utility.yul\":6165:6166   */\n      0x00\n        /* \"#utility.yul\":6154:6163   */\n      dup4\n        /* \"#utility.yul\":6150:6167   */\n      add\n        /* \"#utility.yul\":6143:6190   */\n      mstore\n        /* \"#utility.yul\":6207:6338   */\n      tag_157\n        /* \"#utility.yul\":6333:6337   */\n      dup2\n        /* \"#utility.yul\":6207:6338   */\n      tag_89\n      jump\t// in\n    tag_157:\n        /* \"#utility.yul\":6199:6338   */\n      swap1\n      pop\n        /* \"#utility.yul\":5926:6345   */\n      swap2\n      swap1\n      pop\n      jump\t// out\n        /* \"#utility.yul\":6351:6531   */\n    tag_90:\n        /* \"#utility.yul\":6399:6476   */\n      0x4e487b7100000000000000000000000000000000000000000000000000000000\n        /* \"#utility.yul\":6396:6397   */\n      0x00\n        /* \"#utility.yul\":6389:6477   */\n      mstore\n        /* \"#utility.yul\":6496:6500   */\n      0x11\n        /* \"#utility.yul\":6493:6494   */\n      0x04\n        /* \"#utility.yul\":6486:6501   */\n      mstore\n        /* \"#utility.yul\":6520:6524   */\n      0x24\n        /* \"#utility.yul\":6517:6518   */\n      0x00\n        /* \"#utility.yul\":6510:6525   */\n      revert\n        /* \"#utility.yul\":6537:6731   */\n    tag_53:\n        /* \"#utility.yul\":6577:6581   */\n      0x00\n        /* \"#utility.yul\":6597:6617   */\n      tag_160\n        /* \"#utility.yul\":6615:6616   */\n      dup3\n        /* \"#utility.yul\":6597:6617   */\n      tag_79\n      jump\t// in\n    tag_160:\n        /* \"#utility.yul\":6592:6617   */\n      swap2\n      pop\n        /* \"#utility.yul\":6631:6651   */\n      tag_161\n        /* \"#utility.yul\":6649:6650   */\n      dup4\n        /* \"#utility.yul\":6631:6651   */\n      tag_79\n      jump\t// in\n    tag_161:\n        /* \"#utility.yul\":6626:6651   */\n      swap3\n      pop\n        /* \"#utility.yul\":6675:6676   */\n      dup3\n        /* \"#utility.yul\":6672:6673   */\n      dup3\n        /* \"#utility.yul\":6668:6677   */\n      sub\n        /* \"#utility.yul\":6660:6677   */\n      swap1\n      pop\n        /* \"#utility.yul\":6699:6700   */\n      dup2\n        /* \"#utility.yul\":6693:6697   */\n      dup2\n        /* \"#utility.yul\":6690:6701   */\n      gt\n        /* \"#utility.yul\":6687:6724   */\n      iszero\n      tag_162\n      jumpi\n        /* \"#utility.yul\":6704:6722   */\n      tag_163\n      tag_90\n      jump\t// in\n    tag_163:\n        /* \"#utility.yul\":6687:6724   */\n    tag_162:\n        /* \"#utility.yul\":6537:6731   */\n      swap3\n      swap2\n      pop\n      pop\n      jump\t// out\n        /* \"#utility.yul\":6737:6928   */\n    tag_55:\n        /* \"#utility.yul\":6777:6780   */\n      0x00\n        /* \"#utility.yul\":6796:6816   */\n      tag_165\n        /* \"#utility.yul\":6814:6815   */\n      dup3\n        /* \"#utility.yul\":6796:6816   */\n      tag_79\n      jump\t// in\n    tag_165:\n        /* \"#utility.yul\":6791:6816   */\n      swap2\n      pop\n        /* \"#utility.yul\":6830:6850   */\n      tag_166\n        /* \"#utility.yul\":6848:6849   */\n      dup4\n        /* \"#utility.yul\":6830:6850   */\n      tag_79\n      jump\t// in\n    tag_166:\n        /* \"#utility.yul\":6825:6850   */\n      swap3\n      pop\n        /* \"#utility.yul\":6873:6874   */\n      dup3\n        /* \"#utility.yul\":6870:6871   */\n      dup3\n        /* \"#utility.yul\":6866:6875   */\n      add\n        /* \"#utility.yul\":6859:6875   */\n      swap1\n      pop\n        /* \"#utility.yul\":6894:6897   */\n      dup1\n        /* \"#utility.yul\":6891:6892   */\n      dup3\n        /* \"#utility.yul\":6888:6898   */\n      gt\n        /* \"#utility.yul\":6885:6921   */\n      iszero\n      tag_167\n      jumpi\n        /* \"#utility.yul\":6901:6919   */\n      tag_168\n      tag_90\n      jump\t// in\n    tag_168:\n        /* \"#utility.yul\":6885:6921   */\n    tag_167:\n        /* \"#utility.yul\":6737:6928   */\n      swap3\n      swap2\n      pop\n      pop\n      jump\t// out\n        /* \"#utility.yul\":6934:7052   */\n    tag_91:\n        /* \"#utility.yul\":7021:7045   */\n      tag_170\n        /* \"#utility.yul\":7039:7044   */\n      dup2\n        /* \"#utility.yul\":7021:7045   */\n      tag_76\n      jump\t// in\n    tag_170:\n        /* \"#utility.yul\":7016:7019   */\n      dup3\n        /* \"#utility.yul\":7009:7046   */\n      mstore\n        /* \"#utility.yul\":6934:7052   */\n      pop\n      pop\n      jump\t// out\n        /* \"#utility.yul\":7058:7500   */\n    tag_58:\n        /* \"#utility.yul\":7207:7211   */\n      0x00\n        /* \"#utility.yul\":7245:7247   */\n      0x60\n        /* \"#utility.yul\":7234:7243   */\n      dup3\n        /* \"#utility.yul\":7230:7248   */\n      add\n        /* \"#utility.yul\":7222:7248   */\n      swap1\n      pop\n        /* \"#utility.yul\":7258:7329   */\n      tag_172\n        /* \"#utility.yul\":7326:7327   */\n      0x00\n        /* \"#utility.yul\":7315:7324   */\n      dup4\n        /* \"#utility.yul\":7311:7328   */\n      add\n        /* \"#utility.yul\":7302:7308   */\n      dup7\n        /* \"#utility.yul\":7258:7329   */\n      tag_91\n      jump\t// in\n    tag_172:\n        /* \"#utility.yul\":7339:7411   */\n      tag_173\n        /* \"#utility.yul\":7407:7409   */\n      0x20\n        /* \"#utility.yul\":7396:7405   */\n      dup4\n        /* \"#utility.yul\":7392:7410   */\n      add\n        /* \"#utility.yul\":7383:7389   */\n      dup6\n        /* \"#utility.yul\":7339:7411   */\n      tag_91\n      jump\t// in\n    tag_173:\n        /* \"#utility.yul\":7421:7493   */\n      tag_174\n        /* \"#utility.yul\":7489:7491   */\n      0x40\n        /* \"#utility.yul\":7478:7487   */\n      dup4\n        /* \"#utility.yul\":7474:7492   */\n      add\n        /* \"#utility.yul\":7465:7471   */\n      dup5\n        /* \"#utility.yul\":7421:7493   */\n      tag_84\n      jump\t// in\n    tag_174:\n        /* \"#utility.yul\":7058:7500   */\n      swap5\n      swap4\n      pop\n      pop\n      pop\n      pop\n      jump\t// out\n        /* \"#utility.yul\":7506:7680   */\n    tag_92:\n        /* \"#utility.yul\":7646:7672   */\n      0x5472616e7366657220746f207a65726f20616464726573730000000000000000\n        /* \"#utility.yul\":7642:7643   */\n      0x00\n        /* \"#utility.yul\":7634:7640   */\n      dup3\n        /* \"#utility.yul\":7630:7644   */\n      add\n        /* \"#utility.yul\":7623:7673   */\n      mstore\n        /* \"#utility.yul\":7506:7680   */\n      pop\n      jump\t// out\n        /* \"#utility.yul\":7686:8052   */\n    tag_93:\n        /* \"#utility.yul\":7828:7831   */\n      0x00\n        /* \"#utility.yul\":7849:7916   */\n      tag_177\n        /* \"#utility.yul\":7913:7915   */\n      0x18\n        /* \"#utility.yul\":7908:7911   */\n      dup4\n        /* \"#utility.yul\":7849:7916   */\n      tag_85\n      jump\t// in\n    tag_177:\n        /* \"#utility.yul\":7842:7916   */\n      swap2\n      pop\n        /* \"#utility.yul\":7925:8018   */\n      tag_178\n        /* \"#utility.yul\":8014:8017   */\n      dup3\n        /* \"#utility.yul\":7925:8018   */\n      tag_92\n      jump\t// in\n    tag_178:\n        /* \"#utility.yul\":8043:8045   */\n      0x20\n        /* \"#utility.yul\":8038:8041   */\n      dup3\n        /* \"#utility.yul\":8034:8046   */\n      add\n        /* \"#utility.yul\":8027:8046   */\n      swap1\n      pop\n        /* \"#utility.yul\":7686:8052   */\n      swap2\n      swap1\n      pop\n      jump\t// out\n        /* \"#utility.yul\":8058:8477   */\n    tag_66:\n        /* \"#utility.yul\":8224:8228   */\n      0x00\n        /* \"#utility.yul\":8262:8264   */\n      0x20\n        /* \"#utility.yul\":8251:8260   */\n      dup3\n        /* \"#utility.yul\":8247:8265   */\n      add\n        /* \"#utility.yul\":8239:8265   */\n      swap1\n      pop\n        /* \"#utility.yul\":8311:8320   */\n      dup2\n        /* \"#utility.yul\":8305:8309   */\n      dup2\n        /* \"#utility.yul\":8301:8321   */\n      sub\n        /* \"#utility.yul\":8297:8298   */\n      0x00\n        /* \"#utility.yul\":8286:8295   */\n      dup4\n        /* \"#utility.yul\":8282:8299   */\n      add\n        /* \"#utility.yul\":8275:8322   */\n      mstore\n        /* \"#utility.yul\":8339:8470   */\n      tag_180\n        /* \"#utility.yul\":8465:8469   */\n      dup2\n        /* \"#utility.yul\":8339:8470   */\n      tag_93\n      jump\t// in\n    tag_180:\n        /* \"#utility.yul\":8331:8470   */\n      swap1\n      pop\n        /* \"#utility.yul\":8058:8477   */\n      swap2\n      swap1\n      pop\n      jump\t// out\n\n    auxdata: 0xa2646970667358221220c9373dd431bff4f71f4fab57a257b67e7a6f84c15216ac645c52dfa16bcd28d264736f6c634300081a0033\n}\n",
				"bytecode": {
					"linkReferences": {},
					"object": "6080604052348015600e575f80fd5b50610c068061001c5f395ff3fe608060405234801561000f575f80fd5b506004361061007b575f3560e01c806370a082311161005957806370a08231146100fd578063a0712d681461012d578063a9059cbb14610149578063dd62ed3e146101795761007b565b8063095ea7b31461007f57806318160ddd146100af57806323b872dd146100cd575b5f80fd5b61009960048036038101906100949190610834565b6101a9565b6040516100a6919061088c565b60405180910390f35b6100b7610231565b6040516100c491906108b4565b60405180910390f35b6100e760048036038101906100e291906108cd565b610236565b6040516100f4919061088c565b60405180910390f35b6101176004803603810190610112919061091d565b6104ec565b60405161012491906108b4565b60405180910390f35b61014760048036038101906101429190610948565b610501565b005b610163600480360381019061015e9190610834565b6105a9565b604051610170919061088c565b60405180910390f35b610193600480360381019061018e9190610973565b610783565b6040516101a091906108b4565b60405180910390f35b5f8160025f3373ffffffffffffffffffffffffffffffffffffffff1673ffffffffffffffffffffffffffffffffffffffff1681526020019081526020015f205f8573ffffffffffffffffffffffffffffffffffffffff1673ffffffffffffffffffffffffffffffffffffffff1681526020019081526020015f20819055506001905092915050565b5f5481565b5f8160015f8673ffffffffffffffffffffffffffffffffffffffff1673ffffffffffffffffffffffffffffffffffffffff1681526020019081526020015f205410156102b7576040517f08c379a00000000000000000000000000000000000000000000000000000000081526004016102ae90610a0b565b60405180910390fd5b8160025f8673ffffffffffffffffffffffffffffffffffffffff1673ffffffffffffffffffffffffffffffffffffffff1681526020019081526020015f205f3373ffffffffffffffffffffffffffffffffffffffff1673ffffffffffffffffffffffffffffffffffffffff1681526020019081526020015f20541015610372576040517f08c379a000000000000000000000000000000000000000000000000000000000815260040161036990610a73565b60405180910390fd5b8160015f8673ffffffffffffffffffffffffffffffffffffffff1673ffffffffffffffffffffffffffffffffffffffff1681526020019081526020015f205f8282546103be9190610abe565b925050819055508160015f8573ffffffffffffffffffffffffffffffffffffffff1673ffffffffffffffffffffffffffffffffffffffff1681526020019081526020015f205f8282546104119190610af1565b925050819055508160025f8673ffffffffffffffffffffffffffffffffffffffff1673ffffffffffffffffffffffffffffffffffffffff1681526020019081526020015f205f3373ffffffffffffffffffffffffffffffffffffffff1673ffffffffffffffffffffffffffffffffffffffff1681526020019081526020015f205f82825461049f9190610abe565b925050819055507fddf252ad1be2c89b69c2b068fc378daa952ba7f163c4a11628f55a4df523b3ef8484846040516104d993929190610b33565b60405180910390a1600190509392505050565b6001602052805f5260405f205f915090505481565b8060015f3373ffffffffffffffffffffffffffffffffffffffff1673ffffffffffffffffffffffffffffffffffffffff1681526020019081526020015f205f82825461054d9190610af1565b92505081905550805f808282546105649190610af1565b925050819055507fddf252ad1be2c89b69c2b068fc378daa952ba7f163c4a11628f55a4df523b3ef5f338360405161059e93929190610b33565b60405180910390a150565b5f8073ffffffffffffffffffffffffffffffffffffffff168373ffffffffffffffffffffffffffffffffffffffff1603610618576040517f08c379a000000000000000000000000000000000000000000000000000000000815260040161060f90610bb2565b60405180910390fd5b8160015f3373ffffffffffffffffffffffffffffffffffffffff1673ffffffffffffffffffffffffffffffffffffffff1681526020019081526020015f20541015610698576040517f08c379a000000000000000000000000000000000000000000000000000000000815260040161068f90610a0b565b60405180910390fd5b8160015f3373ffffffffffffffffffffffffffffffffffffffff1673ffffffffffffffffffffffffffffffffffffffff1681526020019081526020015f205f8282546106e49190610abe565b925050819055508160015f8573ffffffffffffffffffffffffffffffffffffffff1673ffffffffffffffffffffffffffffffffffffffff1681526020019081526020015f205f8282546107379190610af1565b925050819055507fddf252ad1be2c89b69c2b068fc378daa952ba7f163c4a11628f55a4df523b3ef33848460405161077193929190610b33565b60405180910390a16001905092915050565b6002602052815f5260405f20602052805f5260405f205f91509150505481565b5f80fd5b5f73ffffffffffffffffffffffffffffffffffffffff82169050919050565b5f6107d0826107a7565b9050919050565b6107e0816107c6565b81146107ea575f80fd5b50565b5f813590506107fb816107d7565b92915050565b5f819050919050565b61081381610801565b811461081d575f80fd5b50565b5f8135905061082e8161080a565b92915050565b5f806040838503121561084a576108496107a3565b5b5f610857858286016107ed565b925050602061086885828601610820565b9150509250929050565b5f8115159050919050565b61088681610872565b82525050565b5f60208201905061089f5f83018461087d565b92915050565b6108ae81610801565b82525050565b5f6020820190506108c75f8301846108a5565b92915050565b5f805f606084860312156108e4576108e36107a3565b5b5f6108f1868287016107ed565b9350506020610902868287016107ed565b925050604061091386828701610820565b9150509250925092565b5f60208284031215610932576109316107a3565b5b5f61093f848285016107ed565b91505092915050565b5f6020828403121561095d5761095c6107a3565b5b5f61096a84828501610820565b91505092915050565b5f8060408385031215610989576109886107a3565b5b5f610996858286016107ed565b92505060206109a7858286016107ed565b9150509250929050565b5f82825260208201905092915050565b7f496e73756666696369656e742062616c616e63650000000000000000000000005f82015250565b5f6109f56014836109b1565b9150610a00826109c1565b602082019050919050565b5f6020820190508181035f830152610a22816109e9565b9050919050565b7f4e6f7420617070726f76656420656e6f756768000000000000000000000000005f82015250565b5f610a5d6013836109b1565b9150610a6882610a29565b602082019050919050565b5f6020820190508181035f830152610a8a81610a51565b9050919050565b7f4e487b71000000000000000000000000000000000000000000000000000000005f52601160045260245ffd5b5f610ac882610801565b9150610ad383610801565b9250828203905081811115610aeb57610aea610a91565b5b92915050565b5f610afb82610801565b9150610b0683610801565b9250828201905080821115610b1e57610b1d610a91565b5b92915050565b610b2d816107c6565b82525050565b5f606082019050610b465f830186610b24565b610b536020830185610b24565b610b6060408301846108a5565b949350505050565b7f5472616e7366657220746f207a65726f206164647265737300000000000000005f82015250565b5f610b9c6018836109b1565b9150610ba782610b68565b602082019050919050565b5f6020820190508181035f830152610bc981610b90565b905091905056fea2646970667358221220c9373dd431bff4f71f4fab57a257b67e7a6f84c15216ac645c52dfa16bcd28d264736f6c634300081a0033",
					"opcodes": "PUSH1 0x80 PUSH1 0x40 MSTORE CALLVALUE DUP1 ISZERO PUSH1 0xE JUMPI PUSH0 DUP1 REVERT JUMPDEST POP PUSH2 0xC06 DUP1 PUSH2 0x1C PUSH0 CODECOPY PUSH0 RETURN INVALID PUSH1 0x80 PUSH1 0x40 MSTORE CALLVALUE DUP1 ISZERO PUSH2 0xF JUMPI PUSH0 DUP1 REVERT JUMPDEST POP PUSH1 0x4 CALLDATASIZE LT PUSH2 0x7B JUMPI PUSH0 CALLDATALOAD PUSH1 0xE0 SHR DUP1 PUSH4 0x70A08231 GT PUSH2 0x59 JUMPI DUP1 PUSH4 0x70A08231 EQ PUSH2 0xFD JUMPI DUP1 PUSH4 0xA0712D68 EQ PUSH2 0x12D JUMPI DUP1 PUSH4 0xA9059CBB EQ PUSH2 0x149 JUMPI DUP1 PUSH4 0xDD62ED3E EQ PUSH2 0x179 JUMPI PUSH2 0x7B JUMP JUMPDEST DUP1 PUSH4 0x95EA7B3 EQ PUSH2 0x7F JUMPI DUP1 PUSH4 0x18160DDD EQ PUSH2 0xAF JUMPI DUP1 PUSH4 0x23B872DD EQ PUSH2 0xCD JUMPI JUMPDEST PUSH0 DUP1 REVERT JUMPDEST PUSH2 0x99 PUSH1 0x4 DUP1 CALLDATASIZE SUB DUP2 ADD SWAP1 PUSH2 0x94 SWAP2 SWAP1 PUSH2 0x834 JUMP JUMPDEST PUSH2 0x1A9 JUMP JUMPDEST PUSH1 0x40 MLOAD PUSH2 0xA6 SWAP2 SWAP1 PUSH2 0x88C JUMP JUMPDEST PUSH1 0x40 MLOAD DUP1 SWAP2 SUB SWAP1 RETURN JUMPDEST PUSH2 0xB7 PUSH2 0x231 JUMP JUMPDEST PUSH1 0x40 MLOAD PUSH2 0xC4 SWAP2 SWAP1 PUSH2 0x8B4 JUMP JUMPDEST PUSH1 0x40 MLOAD DUP1 SWAP2 SUB SWAP1 RETURN JUMPDEST PUSH2 0xE7 PUSH1 0x4 DUP1 CALLDATASIZE SUB DUP2 ADD SWAP1 PUSH2 0xE2 SWAP2 SWAP1 PUSH2 0x8CD JUMP JUMPDEST PUSH2 0x236 JUMP JUMPDEST PUSH1 0x40 MLOAD PUSH2 0xF4 SWAP2 SWAP1 PUSH2 0x88C JUMP JUMPDEST PUSH1 0x40 MLOAD DUP1 SWAP2 SUB SWAP1 RETURN JUMPDEST PUSH2 0x117 PUSH1 0x4 DUP1 CALLDATASIZE SUB DUP2 ADD SWAP1 PUSH2 0x112 SWAP2 SWAP1 PUSH2 0x91D JUMP JUMPDEST PUSH2 0x4EC JUMP JUMPDEST PUSH1 0x40 MLOAD PUSH2 0x124 SWAP2 SWAP1 PUSH2 0x8B4 JUMP JUMPDEST PUSH1 0x40 MLOAD DUP1 SWAP2 SUB SWAP1 RETURN JUMPDEST PUSH2 0x147 PUSH1 0x4 DUP1 CALLDATASIZE SUB DUP2 ADD SWAP1 PUSH2 0x142 SWAP2 SWAP1 PUSH2 0x948 JUMP JUMPDEST PUSH2 0x501 JUMP JUMPDEST STOP JUMPDEST PUSH2 0x163 PUSH1 0x4 DUP1 CALLDATASIZE SUB DUP2 ADD SWAP1 PUSH2 0x15E SWAP2 SWAP1 PUSH2 0x834 JUMP JUMPDEST PUSH2 0x5A9 JUMP JUMPDEST PUSH1 0x40 MLOAD PUSH2 0x170 SWAP2 SWAP1 PUSH2 0x88C JUMP JUMPDEST PUSH1 0x40 MLOAD DUP1 SWAP2 SUB SWAP1 RETURN JUMPDEST PUSH2 0x193 PUSH1 0x4 DUP1 CALLDATASIZE SUB DUP2 ADD SWAP1 PUSH2 0x18E SWAP2 SWAP1 PUSH2 0x973 JUMP JUMPDEST PUSH2 0x783 JUMP JUMPDEST PUSH1 0x40 MLOAD PUSH2 0x1A0 SWAP2 SWAP1 PUSH2 0x8B4 JUMP JUMPDEST PUSH1 0x40 MLOAD DUP1 SWAP2 SUB SWAP1 RETURN JUMPDEST PUSH0 DUP2 PUSH1 0x2 PUSH0 CALLER PUSH20 0xFFFFFFFFFFFFFFFFFFFFFFFFFFFFFFFFFFFFFFFF AND PUSH20 0xFFFFFFFFFFFFFFFFFFFFFFFFFFFFFFFFFFFFFFFF AND DUP2 MSTORE PUSH1 0x20 ADD SWAP1 DUP2 MSTORE PUSH1 0x20 ADD PUSH0 KECCAK256 PUSH0 DUP6 PUSH20 0xFFFFFFFFFFFFFFFFFFFFFFFFFFFFFFFFFFFFFFFF AND PUSH20 0xFFFFFFFFFFFFFFFFFFFFFFFFFFFFFFFFFFFFFFFF AND DUP2 MSTORE PUSH1 0x20 ADD SWAP1 DUP2 MSTORE PUSH1 0x20 ADD PUSH0 KECCAK256 DUP2 SWAP1 SSTORE POP PUSH1 0x1 SWAP1 POP SWAP3 SWAP2 POP POP JUMP JUMPDEST PUSH0 SLOAD DUP2 JUMP JUMPDEST PUSH0 DUP2 PUSH1 0x1 PUSH0 DUP7 PUSH20 0xFFFFFFFFFFFFFFFFFFFFFFFFFFFFFFFFFFFFFFFF AND PUSH20 0xFFFFFFFFFFFFFFFFFFFFFFFFFFFFFFFFFFFFFFFF AND DUP2 MSTORE PUSH1 0x20 ADD SWAP1 DUP2 MSTORE PUSH1 0x20 ADD PUSH0 KECCAK256 SLOAD LT ISZERO PUSH2 0x2B7 JUMPI PUSH1 0x40 MLOAD PUSH32 0x8C379A000000000000000000000000000000000000000000000000000000000 DUP2 MSTORE PUSH1 0x4 ADD PUSH2 0x2AE SWAP1 PUSH2 0xA0B JUMP JUMPDEST PUSH1 0x40 MLOAD DUP1 SWAP2 SUB SWAP1 REVERT JUMPDEST DUP2 PUSH1 0x2 PUSH0 DUP7 PUSH20 0xFFFFFFFFFFFFFFFFFFFFFFFFFFFFFFFFFFFFFFFF AND PUSH20 0xFFFFFFFFFFFFFFFFFFFFFFFFFFFFFFFFFFFFFFFF AND DUP2 MSTORE PUSH1 0x20 ADD SWAP1 DUP2 MSTORE PUSH1 0x20 ADD PUSH0 KECCAK256 PUSH0 CALLER PUSH20 0xFFFFFFFFFFFFFFFFFFFFFFFFFFFFFFFFFFFFFFFF AND PUSH20 0xFFFFFFFFFFFFFFFFFFFFFFFFFFFFFFFFFFFFFFFF AND DUP2 MSTORE PUSH1 0x20 ADD SWAP1 DUP2 MSTORE PUSH1 0x20 ADD PUSH0 KECCAK256 SLOAD LT ISZERO PUSH2 0x372 JUMPI PUSH1 0x40 MLOAD PUSH32 0x8C379A000000000000000000000000000000000000000000000000000000000 DUP2 MSTORE PUSH1 0x4 ADD PUSH2 0x369 SWAP1 PUSH2 0xA73 JUMP JUMPDEST PUSH1 0x40 MLOAD DUP1 SWAP2 SUB SWAP1 REVERT JUMPDEST DUP2 PUSH1 0x1 PUSH0 DUP7 PUSH20 0xFFFFFFFFFFFFFFFFFFFFFFFFFFFFFFFFFFFFFFFF AND PUSH20 0xFFFFFFFFFFFFFFFFFFFFFFFFFFFFFFFFFFFFFFFF AND DUP2 MSTORE PUSH1 0x20 ADD SWAP1 DUP2 MSTORE PUSH1 0x20 ADD PUSH0 KECCAK256 PUSH0 DUP3 DUP3 SLOAD PUSH2 0x3BE SWAP2 SWAP1 PUSH2 0xABE JUMP JUMPDEST SWAP3 POP POP DUP2 SWAP1 SSTORE POP DUP2 PUSH1 0x1 PUSH0 DUP6 PUSH20 0xFFFFFFFFFFFFFFFFFFFFFFFFFFFFFFFFFFFFFFFF AND PUSH20 0xFFFFFFFFFFFFFFFFFFFFFFFFFFFFFFFFFFFFFFFF AND DUP2 MSTORE PUSH1 0x20 ADD SWAP1 DUP2 MSTORE PUSH1 0x20 ADD PUSH0 KECCAK256 PUSH0 DUP3 DUP3 SLOAD PUSH2 0x411 SWAP2 SWAP1 PUSH2 0xAF1 JUMP JUMPDEST SWAP3 POP POP DUP2 SWAP1 SSTORE POP DUP2 PUSH1 0x2 PUSH0 DUP7 PUSH20 0xFFFFFFFFFFFFFFFFFFFFFFFFFFFFFFFFFFFFFFFF AND PUSH20 0xFFFFFFFFFFFFFFFFFFFFFFFFFFFFFFFFFFFFFFFF AND DUP2 MSTORE PUSH1 0x20 ADD SWAP1 DUP2 MSTORE PUSH1 0x20 ADD PUSH0 KECCAK256 PUSH0 CALLER PUSH20 0xFFFFFFFFFFFFFFFFFFFFFFFFFFFFFFFFFFFFFFFF AND PUSH20 0xFFFFFFFFFFFFFFFFFFFFFFFFFFFFFFFFFFFFFFFF AND DUP2 MSTORE PUSH1 0x20 ADD SWAP1 DUP2 MSTORE PUSH1 0x20 ADD PUSH0 KECCAK256 PUSH0 DUP3 DUP3 SLOAD PUSH2 0x49F SWAP2 SWAP1 PUSH2 0xABE JUMP JUMPDEST SWAP3 POP POP DUP2 SWAP1 SSTORE POP PUSH32 0xDDF252AD1BE2C89B69C2B068FC378DAA952BA7F163C4A11628F55A4DF523B3EF DUP5 DUP5 DUP5 PUSH1 0x40 MLOAD PUSH2 0x4D9 SWAP4 SWAP3 SWAP2 SWAP1 PUSH2 0xB33 JUMP JUMPDEST PUSH1 0x40 MLOAD DUP1 SWAP2 SUB SWAP1 LOG1 PUSH1 0x1 SWAP1 POP SWAP4 SWAP3 POP POP POP JUMP JUMPDEST PUSH1 0x1 PUSH1 0x20 MSTORE DUP1 PUSH0 MSTORE PUSH1 0x40 PUSH0 KECCAK256 PUSH0 SWAP2 POP SWAP1 POP SLOAD DUP2 JUMP JUMPDEST DUP1 PUSH1 0x1 PUSH0 CALLER PUSH20 0xFFFFFFFFFFFFFFFFFFFFFFFFFFFFFFFFFFFFFFFF AND PUSH20 0xFFFFFFFFFFFFFFFFFFFFFFFFFFFFFFFFFFFFFFFF AND DUP2 MSTORE PUSH1 0x20 ADD SWAP1 DUP2 MSTORE PUSH1 0x20 ADD PUSH0 KECCAK256 PUSH0 DUP3 DUP3 SLOAD PUSH2 0x54D SWAP2 SWAP1 PUSH2 0xAF1 JUMP JUMPDEST SWAP3 POP POP DUP2 SWAP1 SSTORE POP DUP1 PUSH0 DUP1 DUP3 DUP3 SLOAD PUSH2 0x564 SWAP2 SWAP1 PUSH2 0xAF1 JUMP JUMPDEST SWAP3 POP POP DUP2 SWAP1 SSTORE POP PUSH32 0xDDF252AD1BE2C89B69C2B068FC378DAA952BA7F163C4A11628F55A4DF523B3EF PUSH0 CALLER DUP4 PUSH1 0x40 MLOAD PUSH2 0x59E SWAP4 SWAP3 SWAP2 SWAP1 PUSH2 0xB33 JUMP JUMPDEST PUSH1 0x40 MLOAD DUP1 SWAP2 SUB SWAP1 LOG1 POP JUMP JUMPDEST PUSH0 DUP1 PUSH20 0xFFFFFFFFFFFFFFFFFFFFFFFFFFFFFFFFFFFFFFFF AND DUP4 PUSH20 0xFFFFFFFFFFFFFFFFFFFFFFFFFFFFFFFFFFFFFFFF AND SUB PUSH2 0x618 JUMPI PUSH1 0x40 MLOAD PUSH32 0x8C379A000000000000000000000000000000000000000000000000000000000 DUP2 MSTORE PUSH1 0x4 ADD PUSH2 0x60F SWAP1 PUSH2 0xBB2 JUMP JUMPDEST PUSH1 0x40 MLOAD DUP1 SWAP2 SUB SWAP1 REVERT JUMPDEST DUP2 PUSH1 0x1 PUSH0 CALLER PUSH20 0xFFFFFFFFFFFFFFFFFFFFFFFFFFFFFFFFFFFFFFFF AND PUSH20 0xFFFFFFFFFFFFFFFFFFFFFFFFFFFFFFFFFFFFFFFF AND DUP2 MSTORE PUSH1 0x20 ADD SWAP1 DUP2 MSTORE PUSH1 0x20 ADD PUSH0 KECCAK256 SLOAD LT ISZERO PUSH2 0x698 JUMPI PUSH1 0x40 MLOAD PUSH32 0x8C379A000000000000000000000000000000000000000000000000000000000 DUP2 MSTORE PUSH1 0x4 ADD PUSH2 0x68F SWAP1 PUSH2 0xA0B JUMP JUMPDEST PUSH1 0x40 MLOAD DUP1 SWAP2 SUB SWAP1 REVERT JUMPDEST DUP2 PUSH1 0x1 PUSH0 CALLER PUSH20 0xFFFFFFFFFFFFFFFFFFFFFFFFFFFFFFFFFFFFFFFF AND PUSH20 0xFFFFFFFFFFFFFFFFFFFFFFFFFFFFFFFFFFFFFFFF AND DUP2 MSTORE PUSH1 0x20 ADD SWAP1 DUP2 MSTORE PUSH1 0x20 ADD PUSH0 KECCAK256 PUSH0 DUP3 DUP3 SLOAD PUSH2 0x6E4 SWAP2 SWAP1 PUSH2 0xABE JUMP JUMPDEST SWAP3 POP POP DUP2 SWAP1 SSTORE POP DUP2 PUSH1 0x1 PUSH0 DUP6 PUSH20 0xFFFFFFFFFFFFFFFFFFFFFFFFFFFFFFFFFFFFFFFF AND PUSH20 0xFFFFFFFFFFFFFFFFFFFFFFFFFFFFFFFFFFFFFFFF AND DUP2 MSTORE PUSH1 0x20 ADD SWAP1 DUP2 MSTORE PUSH1 0x20 ADD PUSH0 KECCAK256 PUSH0 DUP3 DUP3 SLOAD PUSH2 0x737 SWAP2 SWAP1 PUSH2 0xAF1 JUMP JUMPDEST SWAP3 POP POP DUP2 SWAP1 SSTORE POP PUSH32 0xDDF252AD1BE2C89B69C2B068FC378DAA952BA7F163C4A11628F55A4DF523B3EF CALLER DUP5 DUP5 PUSH1 0x40 MLOAD PUSH2 0x771 SWAP4 SWAP3 SWAP2 SWAP1 PUSH2 0xB33 JUMP JUMPDEST PUSH1 0x40 MLOAD DUP1 SWAP2 SUB SWAP1 LOG1 PUSH1 0x1 SWAP1 POP SWAP3 SWAP2 POP POP JUMP JUMPDEST PUSH1 0x2 PUSH1 0x20 MSTORE DUP2 PUSH0 MSTORE PUSH1 0x40 PUSH0 KECCAK256 PUSH1 0x20 MSTORE DUP1 PUSH0 MSTORE PUSH1 0x40 PUSH0 KECCAK256 PUSH0 SWAP2 POP SWAP2 POP POP SLOAD DUP2 JUMP JUMPDEST PUSH0 DUP1 REVERT JUMPDEST PUSH0 PUSH20 0xFFFFFFFFFFFFFFFFFFFFFFFFFFFFFFFFFFFFFFFF DUP3 AND SWAP1 POP SWAP2 SWAP1 POP JUMP JUMPDEST PUSH0 PUSH2 0x7D0 DUP3 PUSH2 0x7A7 JUMP JUMPDEST SWAP1 POP SWAP2 SWAP1 POP JUMP JUMPDEST PUSH2 0x7E0 DUP2 PUSH2 0x7C6 JUMP JUMPDEST DUP2 EQ PUSH2 0x7EA JUMPI PUSH0 DUP1 REVERT JUMPDEST POP JUMP JUMPDEST PUSH0 DUP2 CALLDATALOAD SWAP1 POP PUSH2 0x7FB DUP2 PUSH2 0x7D7 JUMP JUMPDEST SWAP3 SWAP2 POP POP JUMP JUMPDEST PUSH0 DUP2 SWAP1 POP SWAP2 SWAP1 POP JUMP JUMPDEST PUSH2 0x813 DUP2 PUSH2 0x801 JUMP JUMPDEST DUP2 EQ PUSH2 0x81D JUMPI PUSH0 DUP1 REVERT JUMPDEST POP JUMP JUMPDEST PUSH0 DUP2 CALLDATALOAD SWAP1 POP PUSH2 0x82E DUP2 PUSH2 0x80A JUMP JUMPDEST SWAP3 SWAP2 POP POP JUMP JUMPDEST PUSH0 DUP1 PUSH1 0x40 DUP4 DUP6 SUB SLT ISZERO PUSH2 0x84A JUMPI PUSH2 0x849 PUSH2 0x7A3 JUMP JUMPDEST JUMPDEST PUSH0 PUSH2 0x857 DUP6 DUP3 DUP7 ADD PUSH2 0x7ED JUMP JUMPDEST SWAP3 POP POP PUSH1 0x20 PUSH2 0x868 DUP6 DUP3 DUP7 ADD PUSH2 0x820 JUMP JUMPDEST SWAP2 POP POP SWAP3 POP SWAP3 SWAP1 POP JUMP JUMPDEST PUSH0 DUP2 ISZERO ISZERO SWAP1 POP SWAP2 SWAP1 POP JUMP JUMPDEST PUSH2 0x886 DUP2 PUSH2 0x872 JUMP JUMPDEST DUP3 MSTORE POP POP JUMP JUMPDEST PUSH0 PUSH1 0x20 DUP3 ADD SWAP1 POP PUSH2 0x89F PUSH0 DUP4 ADD DUP5 PUSH2 0x87D JUMP JUMPDEST SWAP3 SWAP2 POP POP JUMP JUMPDEST PUSH2 0x8AE DUP2 PUSH2 0x801 JUMP JUMPDEST DUP3 MSTORE POP POP JUMP JUMPDEST PUSH0 PUSH1 0x20 DUP3 ADD SWAP1 POP PUSH2 0x8C7 PUSH0 DUP4 ADD DUP5 PUSH2 0x8A5 JUMP JUMPDEST SWAP3 SWAP2 POP POP JUMP JUMPDEST PUSH0 DUP1 PUSH0 PUSH1 0x60 DUP5 DUP7 SUB SLT ISZERO PUSH2 0x8E4 JUMPI PUSH2 0x8E3 PUSH2 0x7A3 JUMP JUMPDEST JUMPDEST PUSH0 PUSH2 0x8F1 DUP7 DUP3 DUP8 ADD PUSH2 0x7ED JUMP JUMPDEST SWAP4 POP POP PUSH1 0x20 PUSH2 0x902 DUP7 DUP3 DUP8 ADD PUSH2 0x7ED JUMP JUMPDEST SWAP3 POP POP PUSH1 0x40 PUSH2 0x913 DUP7 DUP3 DUP8 ADD PUSH2 0x820 JUMP JUMPDEST SWAP2 POP POP SWAP3 POP SWAP3 POP SWAP3 JUMP JUMPDEST PUSH0 PUSH1 0x20 DUP3 DUP5 SUB SLT ISZERO PUSH2 0x932 JUMPI PUSH2 0x931 PUSH2 0x7A3 JUMP JUMPDEST JUMPDEST PUSH0 PUSH2 0x93F DUP5 DUP3 DUP6 ADD PUSH2 0x7ED JUMP JUMPDEST SWAP2 POP POP SWAP3 SWAP2 POP POP JUMP JUMPDEST PUSH0 PUSH1 0x20 DUP3 DUP5 SUB SLT ISZERO PUSH2 0x95D JUMPI PUSH2 0x95C PUSH2 0x7A3 JUMP JUMPDEST JUMPDEST PUSH0 PUSH2 0x96A DUP5 DUP3 DUP6 ADD PUSH2 0x820 JUMP JUMPDEST SWAP2 POP POP SWAP3 SWAP2 POP POP JUMP JUMPDEST PUSH0 DUP1 PUSH1 0x40 DUP4 DUP6 SUB SLT ISZERO PUSH2 0x989 JUMPI PUSH2 0x988 PUSH2 0x7A3 JUMP JUMPDEST JUMPDEST PUSH0 PUSH2 0x996 DUP6 DUP3 DUP7 ADD PUSH2 0x7ED JUMP JUMPDEST SWAP3 POP POP PUSH1 0x20 PUSH2 0x9A7 DUP6 DUP3 DUP7 ADD PUSH2 0x7ED JUMP JUMPDEST SWAP2 POP POP SWAP3 POP SWAP3 SWAP1 POP JUMP JUMPDEST PUSH0 DUP3 DUP3 MSTORE PUSH1 0x20 DUP3 ADD SWAP1 POP SWAP3 SWAP2 POP POP JUMP JUMPDEST PUSH32 0x496E73756666696369656E742062616C616E6365000000000000000000000000 PUSH0 DUP3 ADD MSTORE POP JUMP JUMPDEST PUSH0 PUSH2 0x9F5 PUSH1 0x14 DUP4 PUSH2 0x9B1 JUMP JUMPDEST SWAP2 POP PUSH2 0xA00 DUP3 PUSH2 0x9C1 JUMP JUMPDEST PUSH1 0x20 DUP3 ADD SWAP1 POP SWAP2 SWAP1 POP JUMP JUMPDEST PUSH0 PUSH1 0x20 DUP3 ADD SWAP1 POP DUP2 DUP2 SUB PUSH0 DUP4 ADD MSTORE PUSH2 0xA22 DUP2 PUSH2 0x9E9 JUMP JUMPDEST SWAP1 POP SWAP2 SWAP1 POP JUMP JUMPDEST PUSH32 0x4E6F7420617070726F76656420656E6F75676800000000000000000000000000 PUSH0 DUP3 ADD MSTORE POP JUMP JUMPDEST PUSH0 PUSH2 0xA5D PUSH1 0x13 DUP4 PUSH2 0x9B1 JUMP JUMPDEST SWAP2 POP PUSH2 0xA68 DUP3 PUSH2 0xA29 JUMP JUMPDEST PUSH1 0x20 DUP3 ADD SWAP1 POP SWAP2 SWAP1 POP JUMP JUMPDEST PUSH0 PUSH1 0x20 DUP3 ADD SWAP1 POP DUP2 DUP2 SUB PUSH0 DUP4 ADD MSTORE PUSH2 0xA8A DUP2 PUSH2 0xA51 JUMP JUMPDEST SWAP1 POP SWAP2 SWAP1 POP JUMP JUMPDEST PUSH32 0x4E487B7100000000000000000000000000000000000000000000000000000000 PUSH0 MSTORE PUSH1 0x11 PUSH1 0x4 MSTORE PUSH1 0x24 PUSH0 REVERT JUMPDEST PUSH0 PUSH2 0xAC8 DUP3 PUSH2 0x801 JUMP JUMPDEST SWAP2 POP PUSH2 0xAD3 DUP4 PUSH2 0x801 JUMP JUMPDEST SWAP3 POP DUP3 DUP3 SUB SWAP1 POP DUP2 DUP2 GT ISZERO PUSH2 0xAEB JUMPI PUSH2 0xAEA PUSH2 0xA91 JUMP JUMPDEST JUMPDEST SWAP3 SWAP2 POP POP JUMP JUMPDEST PUSH0 PUSH2 0xAFB DUP3 PUSH2 0x801 JUMP JUMPDEST SWAP2 POP PUSH2 0xB06 DUP4 PUSH2 0x801 JUMP JUMPDEST SWAP3 POP DUP3 DUP3 ADD SWAP1 POP DUP1 DUP3 GT ISZERO PUSH2 0xB1E JUMPI PUSH2 0xB1D PUSH2 0xA91 JUMP JUMPDEST JUMPDEST SWAP3 SWAP2 POP POP JUMP JUMPDEST PUSH2 0xB2D DUP2 PUSH2 0x7C6 JUMP JUMPDEST DUP3 MSTORE POP POP JUMP JUMPDEST PUSH0 PUSH1 0x60 DUP3 ADD SWAP1 POP PUSH2 0xB46 PUSH0 DUP4 ADD DUP7 PUSH2 0xB24 JUMP JUMPDEST PUSH2 0xB53 PUSH1 0x20 DUP4 ADD DUP6 PUSH2 0xB24 JUMP JUMPDEST PUSH2 0xB60 PUSH1 0x40 DUP4 ADD DUP5 PUSH2 0x8A5 JUMP JUMPDEST SWAP5 SWAP4 POP POP POP POP JUMP JUMPDEST PUSH32 0x5472616E7366657220746F207A65726F20616464726573730000000000000000 PUSH0 DUP3 ADD MSTORE POP JUMP JUMPDEST PUSH0 PUSH2 0xB9C PUSH1 0x18 DUP4 PUSH2 0x9B1 JUMP JUMPDEST SWAP2 POP PUSH2 0xBA7 DUP3 PUSH2 0xB68 JUMP JUMPDEST PUSH1 0x20 DUP3 ADD SWAP1 POP SWAP2 SWAP1 POP JUMP JUMPDEST PUSH0 PUSH1 0x20 DUP3 ADD SWAP1 POP DUP2 DUP2 SUB PUSH0 DUP4 ADD MSTORE PUSH2 0xBC9 DUP2 PUSH2 0xB90 JUMP JUMPDEST SWAP1 POP SWAP2 SWAP1 POP JUMP INVALID LOG2 PUSH5 0x6970667358 0x22 SLT KECCAK256 0xC9 CALLDATACOPY RETURNDATASIZE 0xD4 BALANCE 0xBF DELEGATECALL 0xF7 0x1F 0x4F 0xAB JUMPI LOG2 JUMPI 0xB6 PUSH31 0x7A6F84C15216AC645C52DFA16BCD28D264736F6C634300081A003300000000 "
				},
				"gasEstimates": {
					"creation": {
						"codeDepositCost": "615600",
						"executionCost": "649",
						"totalCost": "616249"
					},
					"external": {
						"allowance(address,address)": "infinite",
						"approve(address,uint256)": "23108",
						"balanceOf(address)": "2802",
						"mint(uint256)": "infinite",
						"totalSupply()": "2447",
						"transfer(address,uint256)": "infinite",
						"transferFrom(address,address,uint256)": "infinite"
					}
				},
				"methodIdentifiers": {
					"allowance(address,address)": "dd62ed3e",
					"approve(address,uint256)": "095ea7b3",
					"balanceOf(address)": "70a08231",
					"mint(uint256)": "a0712d68",
					"totalSupply()": "18160ddd",
					"transfer(address,uint256)": "a9059cbb",
					"transferFrom(address,address,uint256)": "23b872dd"
				}
			},
			"storageLayout": {
				"storage": [
					{
						"astId": 3,
						"contract": "solidity-study-3/ERC20.sol:ERC20",
						"label": "totalSupply",
						"offset": 0,
						"slot": "0",
						"type": "t_uint256"
					},
					{
						"astId": 7,
						"contract": "solidity-study-3/ERC20.sol:ERC20",
						"label": "balanceOf",
						"offset": 0,
						"slot": "1",
						"type": "t_mapping(t_address,t_uint256)"
					},
					{
						"astId": 13,
						"contract": "solidity-study-3/ERC20.sol:ERC20",
						"label": "allowance",
						"offset": 0,
						"slot": "2",
						"type": "t_mapping(t_address,t_mapping(t_address,t_uint256))"
					}
				],
				"types": {
					"t_address": {
						"encoding": "inplace",
						"label": "address",
						"numberOfBytes": "20"
					},
					"t_mapping(t_address,t_mapping(t_address,t_uint256))": {
						"encoding": "mapping",
						"key": "t_address",
						"label": "mapping(address => mapping(address => uint256))",
						"numberOfBytes": "32",
						"value": "t_mapping(t_address,t_uint256)"
					},
					"t_mapping(t_address,t_uint256)": {
						"encoding": "mapping",
						"key": "t_address",
						"label": "mapping(address => uint256)",
						"numberOfBytes": "32",
						"value": "t_uint256"
					},
					"t_uint256": {
						"encoding": "inplace",
						"label": "uint256",
						"numberOfBytes": "32"
					}
				}
			},
			"userdoc": {
				"kind": "user",
				"methods": {},
				"version": 1
			}
		}
	}
}