{
	"data": {
		"bytecode": {
			"linkReferences": {},
			"object": "6080604052348015600e575f80fd5b506104b28061001c5f395ff3fe608060405234801561000f575f80fd5b5060043610610029575f3560e01c8063066a7e601461002d575b5f80fd5b610047600480360381019061004291906102d4565b61005d565b604051610054919061033d565b60405180910390f35b5f805f90505f60018551610071919061038c565b90505b808211610114575f6002828461008a91906103bf565b610094919061041f565b90508581815181106100a9576100a861044f565b5b60200260200101518512156100cc576001816100c5919061038c565b915061010e565b8581815181106100df576100de61044f565b5b6020026020010151851315610102576001816100fb91906103bf565b925061010d565b80935050505061013a565b5b50610074565b7fffffffffffffffffffffffffffffffffffffffffffffffffffffffffffffffff925050505b92915050565b5f604051905090565b5f80fd5b5f80fd5b5f80fd5b5f601f19601f8301169050919050565b7f4e487b71000000000000000000000000000000000000000000000000000000005f52604160045260245ffd5b61019b82610155565b810181811067ffffffffffffffff821117156101ba576101b9610165565b5b80604052505050565b5f6101cc610140565b90506101d88282610192565b919050565b5f67ffffffffffffffff8211156101f7576101f6610165565b5b602082029050602081019050919050565b5f80fd5b5f819050919050565b61021e8161020c565b8114610228575f80fd5b50565b5f8135905061023981610215565b92915050565b5f61025161024c846101dd565b6101c3565b9050808382526020820190506020840283018581111561027457610273610208565b5b835b8181101561029d5780610289888261022b565b845260208401935050602081019050610276565b5050509392505050565b5f82601f8301126102bb576102ba610151565b5b81356102cb84826020860161023f565b91505092915050565b5f80604083850312156102ea576102e9610149565b5b5f83013567ffffffffffffffff8111156103075761030661014d565b5b610313858286016102a7565b92505060206103248582860161022b565b9150509250929050565b6103378161020c565b82525050565b5f6020820190506103505f83018461032e565b92915050565b5f819050919050565b7f4e487b71000000000000000000000000000000000000000000000000000000005f52601160045260245ffd5b5f61039682610356565b91506103a183610356565b92508282039050818111156103b9576103b861035f565b5b92915050565b5f6103c982610356565b91506103d483610356565b92508282019050808211156103ec576103eb61035f565b5b92915050565b7f4e487b71000000000000000000000000000000000000000000000000000000005f52601260045260245ffd5b5f61042982610356565b915061043483610356565b925082610444576104436103f2565b5b828204905092915050565b7f4e487b71000000000000000000000000000000000000000000000000000000005f52603260045260245ffdfea2646970667358221220e8f15551bae66acf5071c7c5ac0ab598ad441f51e0d0ef7e03128aaaf3def04864736f6c634300081a0033",
			"opcodes": "PUSH1 0x80 PUSH1 0x40 MSTORE CALLVALUE DUP1 ISZERO PUSH1 0xE JUMPI PUSH0 DUP1 REVERT JUMPDEST POP PUSH2 0x4B2 DUP1 PUSH2 0x1C PUSH0 CODECOPY PUSH0 RETURN INVALID PUSH1 0x80 PUSH1 0x40 MSTORE CALLVALUE DUP1 ISZERO PUSH2 0xF JUMPI PUSH0 DUP1 REVERT JUMPDEST POP PUSH1 0x4 CALLDATASIZE LT PUSH2 0x29 JUMPI PUSH0 CALLDATALOAD PUSH1 0xE0 SHR DUP1 PUSH4 0x66A7E60 EQ PUSH2 0x2D JUMPI JUMPDEST PUSH0 DUP1 REVERT JUMPDEST PUSH2 0x47 PUSH1 0x4 DUP1 CALLDATASIZE SUB DUP2 ADD SWAP1 PUSH2 0x42 SWAP2 SWAP1 PUSH2 0x2D4 JUMP JUMPDEST PUSH2 0x5D JUMP JUMPDEST PUSH1 0x40 MLOAD PUSH2 0x54 SWAP2 SWAP1 PUSH2 0x33D JUMP JUMPDEST PUSH1 0x40 MLOAD DUP1 SWAP2 SUB SWAP1 RETURN JUMPDEST PUSH0 DUP1 PUSH0 SWAP1 POP PUSH0 PUSH1 0x1 DUP6 MLOAD PUSH2 0x71 SWAP2 SWAP1 PUSH2 0x38C JUMP JUMPDEST SWAP1 POP JUMPDEST DUP1 DUP3 GT PUSH2 0x114 JUMPI PUSH0 PUSH1 0x2 DUP3 DUP5 PUSH2 0x8A SWAP2 SWAP1 PUSH2 0x3BF JUMP JUMPDEST PUSH2 0x94 SWAP2 SWAP1 PUSH2 0x41F JUMP JUMPDEST SWAP1 POP DUP6 DUP2 DUP2 MLOAD DUP2 LT PUSH2 0xA9 JUMPI PUSH2 0xA8 PUSH2 0x44F JUMP JUMPDEST JUMPDEST PUSH1 0x20 MUL PUSH1 0x20 ADD ADD MLOAD DUP6 SLT ISZERO PUSH2 0xCC JUMPI PUSH1 0x1 DUP2 PUSH2 0xC5 SWAP2 SWAP1 PUSH2 0x38C JUMP JUMPDEST SWAP2 POP PUSH2 0x10E JUMP JUMPDEST DUP6 DUP2 DUP2 MLOAD DUP2 LT PUSH2 0xDF JUMPI PUSH2 0xDE PUSH2 0x44F JUMP JUMPDEST JUMPDEST PUSH1 0x20 MUL PUSH1 0x20 ADD ADD MLOAD DUP6 SGT ISZERO PUSH2 0x102 JUMPI PUSH1 0x1 DUP2 PUSH2 0xFB SWAP2 SWAP1 PUSH2 0x3BF JUMP JUMPDEST SWAP3 POP PUSH2 0x10D JUMP JUMPDEST DUP1 SWAP4 POP POP POP POP PUSH2 0x13A JUMP JUMPDEST JUMPDEST POP PUSH2 0x74 JUMP JUMPDEST PUSH32 0xFFFFFFFFFFFFFFFFFFFFFFFFFFFFFFFFFFFFFFFFFFFFFFFFFFFFFFFFFFFFFFFF SWAP3 POP POP POP JUMPDEST SWAP3 SWAP2 POP POP JUMP JUMPDEST PUSH0 PUSH1 0x40 MLOAD SWAP1 POP SWAP1 JUMP JUMPDEST PUSH0 DUP1 REVERT JUMPDEST PUSH0 DUP1 REVERT JUMPDEST PUSH0 DUP1 REVERT JUMPDEST PUSH0 PUSH1 0x1F NOT PUSH1 0x1F DUP4 ADD AND SWAP1 POP SWAP2 SWAP1 POP JUMP JUMPDEST PUSH32 0x4E487B7100000000000000000000000000000000000000000000000000000000 PUSH0 MSTORE PUSH1 0x41 PUSH1 0x4 MSTORE PUSH1 0x24 PUSH0 REVERT JUMPDEST PUSH2 0x19B DUP3 PUSH2 0x155 JUMP JUMPDEST DUP2 ADD DUP2 DUP2 LT PUSH8 0xFFFFFFFFFFFFFFFF DUP3 GT OR ISZERO PUSH2 0x1BA JUMPI PUSH2 0x1B9 PUSH2 0x165 JUMP JUMPDEST JUMPDEST DUP1 PUSH1 0x40 MSTORE POP POP POP JUMP JUMPDEST PUSH0 PUSH2 0x1CC PUSH2 0x140 JUMP JUMPDEST SWAP1 POP PUSH2 0x1D8 DUP3 DUP3 PUSH2 0x192 JUMP JUMPDEST SWAP2 SWAP1 POP JUMP JUMPDEST PUSH0 PUSH8 0xFFFFFFFFFFFFFFFF DUP3 GT ISZERO PUSH2 0x1F7 JUMPI PUSH2 0x1F6 PUSH2 0x165 JUMP JUMPDEST JUMPDEST PUSH1 0x20 DUP3 MUL SWAP1 POP PUSH1 0x20 DUP2 ADD SWAP1 POP SWAP2 SWAP1 POP JUMP JUMPDEST PUSH0 DUP1 REVERT JUMPDEST PUSH0 DUP2 SWAP1 POP SWAP2 SWAP1 POP JUMP JUMPDEST PUSH2 0x21E DUP2 PUSH2 0x20C JUMP JUMPDEST DUP2 EQ PUSH2 0x228 JUMPI PUSH0 DUP1 REVERT JUMPDEST POP JUMP JUMPDEST PUSH0 DUP2 CALLDATALOAD SWAP1 POP PUSH2 0x239 DUP2 PUSH2 0x215 JUMP JUMPDEST SWAP3 SWAP2 POP POP JUMP JUMPDEST PUSH0 PUSH2 0x251 PUSH2 0x24C DUP5 PUSH2 0x1DD JUMP JUMPDEST PUSH2 0x1C3 JUMP JUMPDEST SWAP1 POP DUP1 DUP4 DUP3 MSTORE PUSH1 0x20 DUP3 ADD SWAP1 POP PUSH1 0x20 DUP5 MUL DUP4 ADD DUP6 DUP2 GT ISZERO PUSH2 0x274 JUMPI PUSH2 0x273 PUSH2 0x208 JUMP JUMPDEST JUMPDEST DUP4 JUMPDEST DUP2 DUP2 LT ISZERO PUSH2 0x29D JUMPI DUP1 PUSH2 0x289 DUP9 DUP3 PUSH2 0x22B JUMP JUMPDEST DUP5 MSTORE PUSH1 0x20 DUP5 ADD SWAP4 POP POP PUSH1 0x20 DUP2 ADD SWAP1 POP PUSH2 0x276 JUMP JUMPDEST POP POP POP SWAP4 SWAP3 POP POP POP JUMP JUMPDEST PUSH0 DUP3 PUSH1 0x1F DUP4 ADD SLT PUSH2 0x2BB JUMPI PUSH2 0x2BA PUSH2 0x151 JUMP JUMPDEST JUMPDEST DUP2 CALLDATALOAD PUSH2 0x2CB DUP5 DUP3 PUSH1 0x20 DUP7 ADD PUSH2 0x23F JUMP JUMPDEST SWAP2 POP POP SWAP3 SWAP2 POP POP JUMP JUMPDEST PUSH0 DUP1 PUSH1 0x40 DUP4 DUP6 SUB SLT ISZERO PUSH2 0x2EA JUMPI PUSH2 0x2E9 PUSH2 0x149 JUMP JUMPDEST JUMPDEST PUSH0 DUP4 ADD CALLDATALOAD PUSH8 0xFFFFFFFFFFFFFFFF DUP2 GT ISZERO PUSH2 0x307 JUMPI PUSH2 0x306 PUSH2 0x14D JUMP JUMPDEST JUMPDEST PUSH2 0x313 DUP6 DUP3 DUP7 ADD PUSH2 0x2A7 JUMP JUMPDEST SWAP3 POP POP PUSH1 0x20 PUSH2 0x324 DUP6 DUP3 DUP7 ADD PUSH2 0x22B JUMP JUMPDEST SWAP2 POP POP SWAP3 POP SWAP3 SWAP1 POP JUMP JUMPDEST PUSH2 0x337 DUP2 PUSH2 0x20C JUMP JUMPDEST DUP3 MSTORE POP POP JUMP JUMPDEST PUSH0 PUSH1 0x20 DUP3 ADD SWAP1 POP PUSH2 0x350 PUSH0 DUP4 ADD DUP5 PUSH2 0x32E JUMP JUMPDEST SWAP3 SWAP2 POP POP JUMP JUMPDEST PUSH0 DUP2 SWAP1 POP SWAP2 SWAP1 POP JUMP JUMPDEST PUSH32 0x4E487B7100000000000000000000000000000000000000000000000000000000 PUSH0 MSTORE PUSH1 0x11 PUSH1 0x4 MSTORE PUSH1 0x24 PUSH0 REVERT JUMPDEST PUSH0 PUSH2 0x396 DUP3 PUSH2 0x356 JUMP JUMPDEST SWAP2 POP PUSH2 0x3A1 DUP4 PUSH2 0x356 JUMP JUMPDEST SWAP3 POP DUP3 DUP3 SUB SWAP1 POP DUP2 DUP2 GT ISZERO PUSH2 0x3B9 JUMPI PUSH2 0x3B8 PUSH2 0x35F JUMP JUMPDEST JUMPDEST SWAP3 SWAP2 POP POP JUMP JUMPDEST PUSH0 PUSH2 0x3C9 DUP3 PUSH2 0x356 JUMP JUMPDEST SWAP2 POP PUSH2 0x3D4 DUP4 PUSH2 0x356 JUMP JUMPDEST SWAP3 POP DUP3 DUP3 ADD SWAP1 POP DUP1 DUP3 GT ISZERO PUSH2 0x3EC JUMPI PUSH2 0x3EB PUSH2 0x35F JUMP JUMPDEST JUMPDEST SWAP3 SWAP2 POP POP JUMP JUMPDEST PUSH32 0x4E487B7100000000000000000000000000000000000000000000000000000000 PUSH0 MSTORE PUSH1 0x12 PUSH1 0x4 MSTORE PUSH1 0x24 PUSH0 REVERT JUMPDEST PUSH0 PUSH2 0x429 DUP3 PUSH2 0x356 JUMP JUMPDEST SWAP2 POP PUSH2 0x434 DUP4 PUSH2 0x356 JUMP JUMPDEST SWAP3 POP DUP3 PUSH2 0x444 JUMPI PUSH2 0x443 PUSH2 0x3F2 JUMP JUMPDEST JUMPDEST DUP3 DUP3 DIV SWAP1 POP SWAP3 SWAP2 POP POP JUMP JUMPDEST PUSH32 0x4E487B7100000000000000000000000000000000000000000000000000000000 PUSH0 MSTORE PUSH1 0x32 PUSH1 0x4 MSTORE PUSH1 0x24 PUSH0 REVERT INVALID LOG2 PUSH5 0x6970667358 0x22 SLT KECCAK256 0xE8 CALL SSTORE MLOAD 0xBA 0xE6 PUSH11 0xCF5071C7C5AC0AB598AD44 0x1F MLOAD 0xE0 0xD0 0xEF PUSH31 0x3128AAAF3DEF04864736F6C634300081A0033000000000000000000000000 "
		},
		"gasEstimates": {
			"creation": {
				"codeDepositCost": "240400",
				"executionCost": "279",
				"totalCost": "240679"
			},
			"external": {
				"search(int256[],int256)": "infinite"
			}
		},
		"methodIdentifiers": {
			"search(int256[],int256)": "066a7e60"
		}
	},
	"abi": [
		{
			"inputs": [
				{
					"internalType": "int256[]",
					"name": "arr",
					"type": "int256[]"
				},
				{
					"internalType": "int256",
					"name": "target",
					"type": "int256"
				}
			],
			"name": "search",
			"outputs": [
				{
					"internalType": "int256",
					"name": "",
					"type": "int256"
				}
			],
			"stateMutability": "pure",
			"type": "function"
		}
	]
}